{
  "abi": [
    {
      "inputs": [
        {
          "internalType": "address",
          "name": "planner",
          "type": "address"
        },
        {
          "internalType": "address",
          "name": "executor",
          "type": "address"
        }
      ],
      "stateMutability": "nonpayable",
      "type": "constructor"
    },
    {
      "anonymous": false,
      "inputs": [
        {
          "indexed": true,
          "internalType": "bytes32",
          "name": "txHash",
          "type": "bytes32"
        }
      ],
      "name": "Cancelled",
      "type": "event"
    },
    {
      "anonymous": false,
      "inputs": [
        {
          "indexed": true,
          "internalType": "bytes32",
          "name": "txHash",
          "type": "bytes32"
        },
        {
          "indexed": true,
          "internalType": "address",
          "name": "target",
          "type": "address"
        }
      ],
      "name": "Executed",
      "type": "event"
    },
    {
      "anonymous": false,
      "inputs": [
        {
          "indexed": true,
          "internalType": "bytes32",
          "name": "txHash",
          "type": "bytes32"
        },
        {
          "indexed": true,
          "internalType": "address",
          "name": "target",
          "type": "address"
        }
      ],
      "name": "Planned",
      "type": "event"
    },
    {
      "anonymous": false,
      "inputs": [
        {
          "indexed": true,
          "internalType": "bytes32",
          "name": "txHash",
          "type": "bytes32"
        },
        {
          "indexed": true,
          "internalType": "address",
          "name": "target",
          "type": "address"
        }
      ],
      "name": "Restored",
      "type": "event"
    },
    {
      "anonymous": false,
      "inputs": [
        {
          "indexed": true,
          "internalType": "bytes4",
          "name": "role",
          "type": "bytes4"
        },
        {
          "indexed": true,
          "internalType": "bytes4",
          "name": "newAdminRole",
          "type": "bytes4"
        }
      ],
      "name": "RoleAdminChanged",
      "type": "event"
    },
    {
      "anonymous": false,
      "inputs": [
        {
          "indexed": true,
          "internalType": "bytes4",
          "name": "role",
          "type": "bytes4"
        },
        {
          "indexed": true,
          "internalType": "address",
          "name": "account",
          "type": "address"
        },
        {
          "indexed": true,
          "internalType": "address",
          "name": "sender",
          "type": "address"
        }
      ],
      "name": "RoleGranted",
      "type": "event"
    },
    {
      "anonymous": false,
      "inputs": [
        {
          "indexed": true,
          "internalType": "bytes4",
          "name": "role",
          "type": "bytes4"
        },
        {
          "indexed": true,
          "internalType": "address",
          "name": "account",
          "type": "address"
        },
        {
          "indexed": true,
          "internalType": "address",
          "name": "sender",
          "type": "address"
        }
      ],
      "name": "RoleRevoked",
      "type": "event"
    },
    {
      "anonymous": false,
      "inputs": [
        {
          "indexed": true,
          "internalType": "bytes32",
          "name": "txHash",
          "type": "bytes32"
        }
      ],
      "name": "Terminated",
      "type": "event"
    },
    {
      "inputs": [],
      "name": "LOCK",
      "outputs": [
        {
          "internalType": "bytes4",
          "name": "",
          "type": "bytes4"
        }
      ],
      "stateMutability": "view",
      "type": "function"
    },
    {
      "inputs": [],
      "name": "LOCK8605463013",
      "outputs": [
        {
          "internalType": "bytes4",
          "name": "",
          "type": "bytes4"
        }
      ],
      "stateMutability": "view",
      "type": "function"
    },
    {
      "inputs": [],
      "name": "ROOT",
      "outputs": [
        {
          "internalType": "bytes4",
          "name": "",
          "type": "bytes4"
        }
      ],
      "stateMutability": "view",
      "type": "function"
    },
    {
      "inputs": [],
      "name": "ROOT4146650865",
      "outputs": [
        {
          "internalType": "bytes4",
          "name": "",
          "type": "bytes4"
        }
      ],
      "stateMutability": "view",
      "type": "function"
    },
    {
      "inputs": [
        {
          "internalType": "bytes32",
          "name": "txHash",
          "type": "bytes32"
        }
      ],
      "name": "cancel",
      "outputs": [],
      "stateMutability": "nonpayable",
      "type": "function"
    },
    {
      "inputs": [
        {
          "internalType": "bytes32",
          "name": "txHash",
          "type": "bytes32"
        }
      ],
      "name": "execute",
      "outputs": [],
      "stateMutability": "nonpayable",
      "type": "function"
    },
    {
      "inputs": [
        {
          "internalType": "bytes4",
          "name": "role",
          "type": "bytes4"
        }
      ],
      "name": "getRoleAdmin",
      "outputs": [
        {
          "internalType": "bytes4",
          "name": "",
          "type": "bytes4"
        }
      ],
      "stateMutability": "view",
      "type": "function"
    },
    {
      "inputs": [
        {
          "internalType": "bytes4",
          "name": "role",
          "type": "bytes4"
        },
        {
          "internalType": "address",
          "name": "account",
          "type": "address"
        }
      ],
      "name": "grantRole",
      "outputs": [],
      "stateMutability": "nonpayable",
      "type": "function"
    },
    {
      "inputs": [
        {
          "internalType": "bytes4[]",
          "name": "roles",
          "type": "bytes4[]"
        },
        {
          "internalType": "address",
          "name": "account",
          "type": "address"
        }
      ],
      "name": "grantRoles",
      "outputs": [],
      "stateMutability": "nonpayable",
      "type": "function"
    },
    {
      "inputs": [
        {
          "internalType": "bytes4",
          "name": "role",
          "type": "bytes4"
        },
        {
          "internalType": "address",
          "name": "account",
          "type": "address"
        }
      ],
      "name": "hasRole",
      "outputs": [
        {
          "internalType": "bool",
          "name": "",
          "type": "bool"
        }
      ],
      "stateMutability": "view",
      "type": "function"
    },
    {
      "inputs": [
        {
          "internalType": "address",
          "name": "target",
          "type": "address"
        },
        {
          "components": [
            {
              "internalType": "address",
              "name": "contact",
              "type": "address"
            },
            {
              "internalType": "bytes4[]",
              "name": "signatures",
              "type": "bytes4[]"
            }
          ],
          "internalType": "struct IEmergencyBrake.Permission[]",
          "name": "permissions",
          "type": "tuple[]"
        }
      ],
      "name": "hash",
      "outputs": [
        {
          "internalType": "bytes32",
          "name": "txHash",
          "type": "bytes32"
        }
      ],
      "stateMutability": "pure",
      "type": "function"
    },
    {
      "inputs": [
        {
          "internalType": "bytes4",
          "name": "role",
          "type": "bytes4"
        }
      ],
      "name": "lockRole",
      "outputs": [],
      "stateMutability": "nonpayable",
      "type": "function"
    },
    {
      "inputs": [
        {
          "internalType": "address",
          "name": "target",
          "type": "address"
        },
        {
          "components": [
            {
              "internalType": "address",
              "name": "contact",
              "type": "address"
            },
            {
              "internalType": "bytes4[]",
              "name": "signatures",
              "type": "bytes4[]"
            }
          ],
          "internalType": "struct IEmergencyBrake.Permission[]",
          "name": "permissions",
          "type": "tuple[]"
        }
      ],
      "name": "plan",
      "outputs": [
        {
          "internalType": "bytes32",
          "name": "txHash",
          "type": "bytes32"
        }
      ],
      "stateMutability": "nonpayable",
      "type": "function"
    },
    {
      "inputs": [
        {
          "internalType": "bytes32",
          "name": "",
          "type": "bytes32"
        }
      ],
      "name": "plans",
      "outputs": [
        {
          "internalType": "enum EmergencyBrake.State",
          "name": "state",
          "type": "uint8"
        },
        {
          "internalType": "address",
          "name": "target",
          "type": "address"
        },
        {
          "internalType": "bytes",
          "name": "permissions",
          "type": "bytes"
        }
      ],
      "stateMutability": "view",
      "type": "function"
    },
    {
      "inputs": [
        {
          "internalType": "bytes4",
          "name": "role",
          "type": "bytes4"
        },
        {
          "internalType": "address",
          "name": "account",
          "type": "address"
        }
      ],
      "name": "renounceRole",
      "outputs": [],
      "stateMutability": "nonpayable",
      "type": "function"
    },
    {
      "inputs": [
        {
          "internalType": "bytes32",
          "name": "txHash",
          "type": "bytes32"
        }
      ],
      "name": "restore",
      "outputs": [],
      "stateMutability": "nonpayable",
      "type": "function"
    },
    {
      "inputs": [
        {
          "internalType": "bytes4",
          "name": "role",
          "type": "bytes4"
        },
        {
          "internalType": "address",
          "name": "account",
          "type": "address"
        }
      ],
      "name": "revokeRole",
      "outputs": [],
      "stateMutability": "nonpayable",
      "type": "function"
    },
    {
      "inputs": [
        {
          "internalType": "bytes4[]",
          "name": "roles",
          "type": "bytes4[]"
        },
        {
          "internalType": "address",
          "name": "account",
          "type": "address"
        }
      ],
      "name": "revokeRoles",
      "outputs": [],
      "stateMutability": "nonpayable",
      "type": "function"
    },
    {
      "inputs": [
        {
          "internalType": "bytes4",
          "name": "role",
          "type": "bytes4"
        },
        {
          "internalType": "bytes4",
          "name": "adminRole",
          "type": "bytes4"
        }
      ],
      "name": "setRoleAdmin",
      "outputs": [],
      "stateMutability": "nonpayable",
      "type": "function"
    },
    {
      "inputs": [
        {
          "internalType": "bytes32",
          "name": "txHash",
          "type": "bytes32"
        }
      ],
      "name": "terminate",
      "outputs": [],
      "stateMutability": "nonpayable",
      "type": "function"
    }
  ],
  "bytecode": {
    "object": "0x60806040523480156200001157600080fd5b5060405162001e2038038062001e2083398101604081905262000034916200020f565b62000041600033620000bc565b620000556001600160e01b03198062000154565b6200006863de8a066760e01b83620000bc565b6200007b63c4d252f560e01b83620000bc565b6200008e63e751f27160e01b82620000bc565b620000a163205e8d5360e01b83620000bc565b620000b46343d8801560e11b83620000bc565b505062000247565b6001600160e01b031982166000908152602081815260408083206001600160a01b038516845290915290205460ff1662000150576001600160e01b031982166000818152602081815260408083206001600160a01b0386168085529252808320805460ff1916600117905551339391927fe6231789d19137da31d0550f4ba9ee379020a8cfb64cb79bf1790c996d2e616591a45b5050565b6001600160e01b0319811662000186836001600160e01b03191660009081526020819052604090206001015460e01b90565b6001600160e01b0319161462000150576001600160e01b0319828116600081815260208190526040808220600101805463ffffffff191660e087901c17905551928416927fd348e2220a50b4500ec353f6e802d2f14dd1b5d6786148fd1bbcc570bf92d4739190a35050565b80516001600160a01b03811681146200020a57600080fd5b919050565b600080604083850312156200022357600080fd5b6200022e83620001f2565b91506200023e60208401620001f2565b90509250929050565b611bc980620002576000396000f3fe608060405234801561001057600080fd5b50600436106101275760003560e01c8063a4f0d7d0116100ad578063de02cde711610071578063de02cde714610274578063de8a066714610287578063e751f2711461029a578063effae353146102ad578063ffffffff1461020a57600080fd5b8063a4f0d7d01461020a578063aa4f265314610219578063ad82110f1461023b578063ae93c1b51461024e578063c4d252f51461026157600080fd5b80635909c12f116100f45780635909c12f1461012c5780635ba5e9f0146101b0578063687f0e4c146101c357806380477743146101d657806387b1002a146101f757600080fd5b801561012c57806310ab943214610152578063205e8d531461017557806344faded01461018a578063559742d91461019d575b600080fd5b610134600081565b6040516001600160e01b031990911681526020015b60405180910390f35b610165610160366004611464565b6102c0565b6040519015158152602001610149565b61018861018336600461149d565b6102d3565b005b610188610198366004611464565b6105d6565b6101886101ab3660046114b6565b610614565b6101346101be3660046114b6565b610653565b6101886101d1366004611464565b610664565b6101e96101e43660046114d3565b6106bf565b604051908152602001610149565b61018861020536600461149d565b6106f5565b6101346001600160e01b031981565b61022c61022736600461149d565b6107f5565b60405161014993929190611571565b61018861024936600461168f565b6108af565b61018861025c366004611740565b610931565b61018861026f36600461149d565b610964565b610188610282366004611464565b610a64565b6101e96102953660046114d3565b610a97565b6101886102a836600461149d565b610d7a565b6101886102bb36600461168f565b611128565b60006102cc838361119d565b9392505050565b6102e96000356001600160e01b0319163361119d565b61030e5760405162461bcd60e51b81526004016103059061176e565b60405180910390fd5b6000818152600160205260408082208151606081019092528054829060ff16600281111561033e5761033e61155b565b600281111561034f5761034f61155b565b8152815461010090046001600160a01b0316602082015260018201805460409092019161037b90611795565b80601f01602080910402602001604051908101604052809291908181526020018280546103a790611795565b80156103f45780601f106103c9576101008083540402835291602001916103f4565b820191906000526020600020905b8154815290600101906020018083116103d757829003601f168201915b50505050508152505090506002808111156104115761041161155b565b815160028111156104245761042461155b565b146104715760405162461bcd60e51b815260206004820152601c60248201527f456d657267656e637920706c616e206e6f742065786563757465642e000000006044820152606401610305565b6000828152600160208181526040808420805460ff19169093179092559083015180516104a492908201810191016117cf565b905060005b81518110156105955760008282815181106104c6576104c661192a565b6020026020010151905060005b8160200151518110156105805781516020830151805160009190849081106104fd576104fd61192a565b60200260200101519050816001600160a01b031663de02cde78289602001516040518363ffffffff1660e01b8152600401610539929190611940565b600060405180830381600087803b15801561055357600080fd5b505af1158015610567573d6000803e3d6000fd5b505050505050808061057890611963565b9150506104d3565b5050808061058d90611963565b9150506104a9565b5081602001516001600160a01b0316837f4275022230b32f544d01bb137130fc8527be2e0aeb0695e07d3af3886a47c9fe60405160405180910390a3505050565b816105e96105e3826111d2565b3361119d565b6106055760405162461bcd60e51b81526004016103059061198a565b61060f83836111f4565b505050565b806106216105e3826111d2565b61063d5760405162461bcd60e51b81526004016103059061198a565b61064f826001600160e01b0319611263565b5050565b600061065e826111d2565b92915050565b6001600160a01b03811633146106b55760405162461bcd60e51b81526020600482015260166024820152752932b737bab731b29037b7363c903337b91039b2b63360511b6044820152606401610305565b61064f82826111f4565b60008383836040516020016106d693929190611ab6565b6040516020818303038152906040528051906020012090509392505050565b61070b6000356001600160e01b0319163361119d565b6107275760405162461bcd60e51b81526004016103059061176e565b600260008281526001602052604090205460ff16600281111561074c5761074c61155b565b146107995760405162461bcd60e51b815260206004820152601c60248201527f456d657267656e637920706c616e206e6f742065786563757465642e000000006044820152606401610305565b6000818152600160208190526040822080546001600160a81b031916815591906107c590830182611353565b505060405181907fb8c11d8ef6be70179d02ea6530a02546efc66e7888ef8a597dd0dc5a28847b4590600090a250565b60016020819052600091825260409091208054918101805460ff84169361010090046001600160a01b031692919061082c90611795565b80601f016020809104026020016040519081016040528092919081815260200182805461085890611795565b80156108a55780601f1061087a576101008083540402835291602001916108a5565b820191906000526020600020905b81548152906001019060200180831161088857829003601f168201915b5050505050905083565b60005b825181101561060f576108e06105e38483815181106108d3576108d361192a565b60200260200101516111d2565b6108fc5760405162461bcd60e51b81526004016103059061198a565b61091f8382815181106109115761091161192a565b6020026020010151836111f4565b8061092981611963565b9150506108b2565b8161093e6105e3826111d2565b61095a5760405162461bcd60e51b81526004016103059061198a565b61060f8383611263565b61097a6000356001600160e01b0319163361119d565b6109965760405162461bcd60e51b81526004016103059061176e565b600160008281526001602052604090205460ff1660028111156109bb576109bb61155b565b14610a085760405162461bcd60e51b815260206004820152601a60248201527f456d657267656e6379206e6f7420706c616e6e656420666f722e0000000000006044820152606401610305565b6000818152600160208190526040822080546001600160a81b03191681559190610a3490830182611353565b505060405181907fbaa1eb22f2a492ba1a5fea61b8df4d27c6c8b5f3971e63bb58fa14ff72eedb7090600090a250565b81610a716105e3826111d2565b610a8d5760405162461bcd60e51b81526004016103059061198a565b61060f83836112e2565b6000610aaf6000356001600160e01b0319163361119d565b610acb5760405162461bcd60e51b81526004016103059061176e565b838383604051602001610ae093929190611ab6565b60408051601f19818403018152919052805160209091012090506000808281526001602052604090205460ff166002811115610b1e57610b1e61155b565b14610b6b5760405162461bcd60e51b815260206004820152601e60248201527f456d657267656e637920616c726561647920706c616e6e656420666f722e00006044820152606401610305565b60005b82811015610c7d5760005b848483818110610b8b57610b8b61192a565b9050602002810190610b9d9190611ae4565b610bab906020810190611b04565b9050811015610c6a576000858584818110610bc857610bc861192a565b9050602002810190610bda9190611ae4565b610be8906020810190611b04565b83818110610bf857610bf861192a565b9050602002016020810190610c0d91906114b6565b6001600160e01b03191603610c585760405162461bcd60e51b815260206004820152601160248201527010d85b89dd081c995b5bdd99481493d3d5607a1b6044820152606401610305565b80610c6281611963565b915050610b79565b5080610c7581611963565b915050610b6e565b5060408051606081019091528060018152602001856001600160a01b031681526020018484604051602001610cb3929190611b55565b60408051601f1981840301815291815291526000838152600160208190529190208251815491929091839160ff1990911690836002811115610cf757610cf761155b565b021790555060208281015182546001600160a01b0390911661010002610100600160a81b031990911617825560408301518051610d3a9260018501920190611390565b50506040516001600160a01b038616915082907f37ac5de7a90f04f7f1c8ac1abdfce792e13bf888d85cff4be327bc4ea2ea816990600090a39392505050565b610d906000356001600160e01b0319163361119d565b610dac5760405162461bcd60e51b81526004016103059061176e565b6000818152600160205260408082208151606081019092528054829060ff166002811115610ddc57610ddc61155b565b6002811115610ded57610ded61155b565b8152815461010090046001600160a01b03166020820152600182018054604090920191610e1990611795565b80601f0160208091040260200160405190810160405280929190818152602001828054610e4590611795565b8015610e925780601f10610e6757610100808354040283529160200191610e92565b820191906000526020600020905b815481529060010190602001808311610e7557829003601f168201915b505050505081525050905060016002811115610eb057610eb061155b565b81516002811115610ec357610ec361155b565b14610f105760405162461bcd60e51b815260206004820152601a60248201527f456d657267656e6379206e6f7420706c616e6e656420666f722e0000000000006044820152606401610305565b6000828152600160209081526040808320805460ff191660021790558301518051610f4192908201810191016117cf565b905060005b81518110156110e7576000828281518110610f6357610f6361192a565b6020026020010151905060005b8160200151518110156110d2578151602083015180516000919084908110610f9a57610f9a61192a565b60200260200101519050816001600160a01b03166310ab94328289602001516040518363ffffffff1660e01b8152600401610fd6929190611940565b602060405180830381865afa158015610ff3573d6000803e3d6000fd5b505050506040513d601f19601f820116820180604052508101906110179190611b71565b61105a5760405162461bcd60e51b815260206004820152601460248201527314195c9b5a5cdcda5bdb881b9bdd08199bdd5b9960621b6044820152606401610305565b602087015160405163044faded60e41b81526001600160a01b038416916344faded09161108b918591600401611940565b600060405180830381600087803b1580156110a557600080fd5b505af11580156110b9573d6000803e3d6000fd5b50505050505080806110ca90611963565b915050610f70565b505080806110df90611963565b915050610f46565b5081602001516001600160a01b0316837f59c3746e635078efc737fb3f37dd8188203b8df10bbad35878a7d156f4f51c4160405160405180910390a3505050565b60005b825181101561060f5761114c6105e38483815181106108d3576108d361192a565b6111685760405162461bcd60e51b81526004016103059061198a565b61118b83828151811061117d5761117d61192a565b6020026020010151836112e2565b8061119581611963565b91505061112b565b6001600160e01b031982166000908152602081815260408083206001600160a01b038516845290915290205460ff1692915050565b6001600160e01b03191660009081526020819052604090206001015460e01b90565b6111fe828261119d565b1561064f576001600160e01b031982166000818152602081815260408083206001600160a01b0386168085529252808320805460ff1916905551339391927f4ddc7b757e7bdd7254a9cd39452d307a52761bc824625c6a33104a075d8099e691a45050565b6001600160e01b03198116611277836111d2565b6001600160e01b0319161461064f576001600160e01b0319828116600081815260208190526040808220600101805463ffffffff191660e087901c17905551928416927fd348e2220a50b4500ec353f6e802d2f14dd1b5d6786148fd1bbcc570bf92d4739190a35050565b6112ec828261119d565b61064f576001600160e01b031982166000818152602081815260408083206001600160a01b0386168085529252808320805460ff1916600117905551339391927fe6231789d19137da31d0550f4ba9ee379020a8cfb64cb79bf1790c996d2e616591a45050565b50805461135f90611795565b6000825580601f1061136f575050565b601f01602090049060005260206000209081019061138d9190611414565b50565b82805461139c90611795565b90600052602060002090601f0160209004810192826113be5760008555611404565b82601f106113d757805160ff1916838001178555611404565b82800160010185558215611404579182015b828111156114045782518255916020019190600101906113e9565b50611410929150611414565b5090565b5b808211156114105760008155600101611415565b6001600160e01b03198116811461138d57600080fd5b6001600160a01b038116811461138d57600080fd5b803561145f8161143f565b919050565b6000806040838503121561147757600080fd5b823561148281611429565b915060208301356114928161143f565b809150509250929050565b6000602082840312156114af57600080fd5b5035919050565b6000602082840312156114c857600080fd5b81356102cc81611429565b6000806000604084860312156114e857600080fd5b83356114f38161143f565b9250602084013567ffffffffffffffff8082111561151057600080fd5b818601915086601f83011261152457600080fd5b81358181111561153357600080fd5b8760208260051b850101111561154857600080fd5b6020830194508093505050509250925092565b634e487b7160e01b600052602160045260246000fd5b60006003851061159157634e487b7160e01b600052602160045260246000fd5b848252602060018060a01b0385168184015260606040840152835180606085015260005b818110156115d1578581018301518582016080015282016115b5565b818111156115e3576000608083870101525b50601f01601f19169290920160800195945050505050565b634e487b7160e01b600052604160045260246000fd5b6040805190810167ffffffffffffffff81118282101715611634576116346115fb565b60405290565b604051601f8201601f1916810167ffffffffffffffff81118282101715611663576116636115fb565b604052919050565b600067ffffffffffffffff821115611685576116856115fb565b5060051b60200190565b600080604083850312156116a257600080fd5b823567ffffffffffffffff8111156116b957600080fd5b8301601f810185136116ca57600080fd5b803560206116df6116da8361166b565b61163a565b82815260059290921b830181019181810190888411156116fe57600080fd5b938201935b8385101561172557843561171681611429565b82529382019390820190611703565b95506117349050868201611454565b93505050509250929050565b6000806040838503121561175357600080fd5b823561175e81611429565b9150602083013561149281611429565b6020808252600d908201526c1058d8d95cdcc819195b9a5959609a1b604082015260600190565b600181811c908216806117a957607f821691505b6020821081036117c957634e487b7160e01b600052602260045260246000fd5b50919050565b600060208083850312156117e257600080fd5b825167ffffffffffffffff808211156117fa57600080fd5b818501915085601f83011261180e57600080fd5b815161181c6116da8261166b565b81815260059190911b8301840190848101908883111561183b57600080fd5b8585015b8381101561191d578051858111156118575760008081fd5b86016040818c03601f190181131561186f5760008081fd5b611877611611565b898301516118848161143f565b815282820151888111156118985760008081fd5b8084019350508c603f8401126118ae5760008081fd5b898301516118be6116da8261166b565b81815260059190911b84018301908b8101908f8311156118de5760008081fd5b948401945b8286101561190857855194506118f885611429565b848252948c0194908c01906118e3565b838d015250508552505091860191860161183f565b5098975050505050505050565b634e487b7160e01b600052603260045260246000fd5b6001600160e01b03199290921682526001600160a01b0316602082015260400190565b60006001820161198357634e487b7160e01b600052601160045260246000fd5b5060010190565b6020808252600a908201526927b7363c9030b236b4b760b11b604082015260600190565b81835260006020808501808196506005915085821b81018560005b88811015611aa8578383038a528135603e198936030181126119ea57600080fd5b8801604084810182356119fc8161143f565b6001600160a01b031686528289013536849003601e19018112611a1e57600080fd5b90920188810192903567ffffffffffffffff811115611a3c57600080fd5b80891b3603841315611a4d57600080fd5b868a019290925281905260608501906000905b80821015611a93578335611a7381611429565b6001600160e01b0319168352928901929189019160019190910190611a60565b50509a87019a935050908501906001016119c9565b509098975050505050505050565b6001600160a01b0384168152604060208201819052600090611adb90830184866119ae565b95945050505050565b60008235603e19833603018112611afa57600080fd5b9190910192915050565b6000808335601e19843603018112611b1b57600080fd5b83018035915067ffffffffffffffff821115611b3657600080fd5b6020019150600581901b3603821315611b4e57600080fd5b9250929050565b602081526000611b696020830184866119ae565b949350505050565b600060208284031215611b8357600080fd5b815180151581146102cc57600080fdfea2646970667358221220de49dd7d81528ec353d3ca3e9bb760f8815f54f26e6bbf1be9f671014033c47f64736f6c634300080e0033",
    "linkReferences": {}
  },
  "methodIdentifiers": {
    "LOCK()": "a4f0d7d0",
    "LOCK8605463013()": "ffffffff",
    "ROOT()": "5909c12f",
    "ROOT4146650865()": "00000000",
    "cancel(bytes32)": "c4d252f5",
    "execute(bytes32)": "e751f271",
    "getRoleAdmin(bytes4)": "5ba5e9f0",
    "grantRole(bytes4,address)": "de02cde7",
    "grantRoles(bytes4[],address)": "effae353",
    "hasRole(bytes4,address)": "10ab9432",
    "hash(address,(address,bytes4[])[])": "80477743",
    "lockRole(bytes4)": "559742d9",
    "plan(address,(address,bytes4[])[])": "de8a0667",
    "plans(bytes32)": "aa4f2653",
    "renounceRole(bytes4,address)": "687f0e4c",
    "restore(bytes32)": "205e8d53",
    "revokeRole(bytes4,address)": "44faded0",
    "revokeRoles(bytes4[],address)": "ad82110f",
    "setRoleAdmin(bytes4,bytes4)": "ae93c1b5",
    "terminate(bytes32)": "87b1002a"
  },
  "id": 13
}