{
  "abi": [
    {
      "inputs": [
        {
          "internalType": "address",
          "name": "asset_",
          "type": "address"
        },
        {
          "internalType": "address",
          "name": "underlying_",
          "type": "address"
        },
        {
          "internalType": "address",
          "name": "underlyingJoin_",
          "type": "address"
        },
        {
          "internalType": "uint40",
          "name": "maturity_",
          "type": "uint40"
        },
        {
          "internalType": "uint16",
          "name": "currencyId_",
          "type": "uint16"
        }
      ],
      "stateMutability": "nonpayable",
      "type": "constructor"
    },
    {
      "anonymous": false,
      "inputs": [
        {
          "indexed": true,
          "internalType": "uint256",
          "name": "fee",
          "type": "uint256"
        }
      ],
      "name": "FlashFeeFactorSet",
      "type": "event"
    },
    {
      "anonymous": false,
      "inputs": [
        {
          "indexed": false,
          "internalType": "uint256",
          "name": "fCash",
          "type": "uint256"
        },
        {
          "indexed": false,
          "internalType": "uint256",
          "name": "underlying",
          "type": "uint256"
        },
        {
          "indexed": false,
          "internalType": "uint256",
          "name": "accrual",
          "type": "uint256"
        }
      ],
      "name": "Redeemed",
      "type": "event"
    },
    {
      "anonymous": false,
      "inputs": [
        {
          "indexed": true,
          "internalType": "bytes4",
          "name": "role",
          "type": "bytes4"
        },
        {
          "indexed": true,
          "internalType": "bytes4",
          "name": "newAdminRole",
          "type": "bytes4"
        }
      ],
      "name": "RoleAdminChanged",
      "type": "event"
    },
    {
      "anonymous": false,
      "inputs": [
        {
          "indexed": true,
          "internalType": "bytes4",
          "name": "role",
          "type": "bytes4"
        },
        {
          "indexed": true,
          "internalType": "address",
          "name": "account",
          "type": "address"
        },
        {
          "indexed": true,
          "internalType": "address",
          "name": "sender",
          "type": "address"
        }
      ],
      "name": "RoleGranted",
      "type": "event"
    },
    {
      "anonymous": false,
      "inputs": [
        {
          "indexed": true,
          "internalType": "bytes4",
          "name": "role",
          "type": "bytes4"
        },
        {
          "indexed": true,
          "internalType": "address",
          "name": "account",
          "type": "address"
        },
        {
          "indexed": true,
          "internalType": "address",
          "name": "sender",
          "type": "address"
        }
      ],
      "name": "RoleRevoked",
      "type": "event"
    },
    {
      "inputs": [],
      "name": "FLASH_LOANS_DISABLED",
      "outputs": [
        {
          "internalType": "uint256",
          "name": "",
          "type": "uint256"
        }
      ],
      "stateMutability": "view",
      "type": "function"
    },
    {
      "inputs": [],
      "name": "LOCK",
      "outputs": [
        {
          "internalType": "bytes4",
          "name": "",
          "type": "bytes4"
        }
      ],
      "stateMutability": "view",
      "type": "function"
    },
    {
      "inputs": [],
      "name": "LOCK8605463013",
      "outputs": [
        {
          "internalType": "bytes4",
          "name": "",
          "type": "bytes4"
        }
      ],
      "stateMutability": "view",
      "type": "function"
    },
    {
      "inputs": [],
      "name": "ROOT",
      "outputs": [
        {
          "internalType": "bytes4",
          "name": "",
          "type": "bytes4"
        }
      ],
      "stateMutability": "view",
      "type": "function"
    },
    {
      "inputs": [],
      "name": "ROOT4146650865",
      "outputs": [
        {
          "internalType": "bytes4",
          "name": "",
          "type": "bytes4"
        }
      ],
      "stateMutability": "view",
      "type": "function"
    },
    {
      "inputs": [],
      "name": "accrual",
      "outputs": [
        {
          "internalType": "uint256",
          "name": "",
          "type": "uint256"
        }
      ],
      "stateMutability": "view",
      "type": "function"
    },
    {
      "inputs": [],
      "name": "asset",
      "outputs": [
        {
          "internalType": "address",
          "name": "",
          "type": "address"
        }
      ],
      "stateMutability": "view",
      "type": "function"
    },
    {
      "inputs": [],
      "name": "currencyId",
      "outputs": [
        {
          "internalType": "uint16",
          "name": "",
          "type": "uint16"
        }
      ],
      "stateMutability": "view",
      "type": "function"
    },
    {
      "inputs": [
        {
          "internalType": "address",
          "name": "user",
          "type": "address"
        },
        {
          "internalType": "uint128",
          "name": "amount",
          "type": "uint128"
        }
      ],
      "name": "exit",
      "outputs": [
        {
          "internalType": "uint128",
          "name": "",
          "type": "uint128"
        }
      ],
      "stateMutability": "nonpayable",
      "type": "function"
    },
    {
      "inputs": [],
      "name": "flashFeeFactor",
      "outputs": [
        {
          "internalType": "uint256",
          "name": "",
          "type": "uint256"
        }
      ],
      "stateMutability": "view",
      "type": "function"
    },
    {
      "inputs": [
        {
          "internalType": "bytes4",
          "name": "role",
          "type": "bytes4"
        }
      ],
      "name": "getRoleAdmin",
      "outputs": [
        {
          "internalType": "bytes4",
          "name": "",
          "type": "bytes4"
        }
      ],
      "stateMutability": "view",
      "type": "function"
    },
    {
      "inputs": [
        {
          "internalType": "bytes4",
          "name": "role",
          "type": "bytes4"
        },
        {
          "internalType": "address",
          "name": "account",
          "type": "address"
        }
      ],
      "name": "grantRole",
      "outputs": [],
      "stateMutability": "nonpayable",
      "type": "function"
    },
    {
      "inputs": [
        {
          "internalType": "bytes4[]",
          "name": "roles",
          "type": "bytes4[]"
        },
        {
          "internalType": "address",
          "name": "account",
          "type": "address"
        }
      ],
      "name": "grantRoles",
      "outputs": [],
      "stateMutability": "nonpayable",
      "type": "function"
    },
    {
      "inputs": [
        {
          "internalType": "bytes4",
          "name": "role",
          "type": "bytes4"
        },
        {
          "internalType": "address",
          "name": "account",
          "type": "address"
        }
      ],
      "name": "hasRole",
      "outputs": [
        {
          "internalType": "bool",
          "name": "",
          "type": "bool"
        }
      ],
      "stateMutability": "view",
      "type": "function"
    },
    {
      "inputs": [],
      "name": "id",
      "outputs": [
        {
          "internalType": "uint256",
          "name": "",
          "type": "uint256"
        }
      ],
      "stateMutability": "view",
      "type": "function"
    },
    {
      "inputs": [
        {
          "internalType": "address",
          "name": "user",
          "type": "address"
        },
        {
          "internalType": "uint128",
          "name": "amount",
          "type": "uint128"
        }
      ],
      "name": "join",
      "outputs": [
        {
          "internalType": "uint128",
          "name": "",
          "type": "uint128"
        }
      ],
      "stateMutability": "nonpayable",
      "type": "function"
    },
    {
      "inputs": [
        {
          "internalType": "bytes4",
          "name": "role",
          "type": "bytes4"
        }
      ],
      "name": "lockRole",
      "outputs": [],
      "stateMutability": "nonpayable",
      "type": "function"
    },
    {
      "inputs": [],
      "name": "maturity",
      "outputs": [
        {
          "internalType": "uint40",
          "name": "",
          "type": "uint40"
        }
      ],
      "stateMutability": "view",
      "type": "function"
    },
    {
      "inputs": [
        {
          "internalType": "address",
          "name": "",
          "type": "address"
        },
        {
          "internalType": "address",
          "name": "",
          "type": "address"
        },
        {
          "internalType": "uint256[]",
          "name": "_ids",
          "type": "uint256[]"
        },
        {
          "internalType": "uint256[]",
          "name": "",
          "type": "uint256[]"
        },
        {
          "internalType": "bytes",
          "name": "",
          "type": "bytes"
        }
      ],
      "name": "onERC1155BatchReceived",
      "outputs": [
        {
          "internalType": "bytes4",
          "name": "",
          "type": "bytes4"
        }
      ],
      "stateMutability": "nonpayable",
      "type": "function"
    },
    {
      "inputs": [
        {
          "internalType": "address",
          "name": "",
          "type": "address"
        },
        {
          "internalType": "address",
          "name": "",
          "type": "address"
        },
        {
          "internalType": "uint256",
          "name": "_id",
          "type": "uint256"
        },
        {
          "internalType": "uint256",
          "name": "",
          "type": "uint256"
        },
        {
          "internalType": "bytes",
          "name": "",
          "type": "bytes"
        }
      ],
      "name": "onERC1155Received",
      "outputs": [
        {
          "internalType": "bytes4",
          "name": "",
          "type": "bytes4"
        }
      ],
      "stateMutability": "nonpayable",
      "type": "function"
    },
    {
      "inputs": [],
      "name": "redeem",
      "outputs": [],
      "stateMutability": "nonpayable",
      "type": "function"
    },
    {
      "inputs": [
        {
          "internalType": "bytes4",
          "name": "role",
          "type": "bytes4"
        },
        {
          "internalType": "address",
          "name": "account",
          "type": "address"
        }
      ],
      "name": "renounceRole",
      "outputs": [],
      "stateMutability": "nonpayable",
      "type": "function"
    },
    {
      "inputs": [
        {
          "internalType": "contract IERC20",
          "name": "token",
          "type": "address"
        },
        {
          "internalType": "address",
          "name": "to",
          "type": "address"
        }
      ],
      "name": "retrieve",
      "outputs": [],
      "stateMutability": "nonpayable",
      "type": "function"
    },
    {
      "inputs": [
        {
          "internalType": "contract ERC1155",
          "name": "token",
          "type": "address"
        },
        {
          "internalType": "uint256",
          "name": "id_",
          "type": "uint256"
        },
        {
          "internalType": "address",
          "name": "to",
          "type": "address"
        }
      ],
      "name": "retrieveERC1155",
      "outputs": [],
      "stateMutability": "nonpayable",
      "type": "function"
    },
    {
      "inputs": [
        {
          "internalType": "bytes4",
          "name": "role",
          "type": "bytes4"
        },
        {
          "internalType": "address",
          "name": "account",
          "type": "address"
        }
      ],
      "name": "revokeRole",
      "outputs": [],
      "stateMutability": "nonpayable",
      "type": "function"
    },
    {
      "inputs": [
        {
          "internalType": "bytes4[]",
          "name": "roles",
          "type": "bytes4[]"
        },
        {
          "internalType": "address",
          "name": "account",
          "type": "address"
        }
      ],
      "name": "revokeRoles",
      "outputs": [],
      "stateMutability": "nonpayable",
      "type": "function"
    },
    {
      "inputs": [
        {
          "internalType": "bytes4",
          "name": "role",
          "type": "bytes4"
        },
        {
          "internalType": "bytes4",
          "name": "adminRole",
          "type": "bytes4"
        }
      ],
      "name": "setRoleAdmin",
      "outputs": [],
      "stateMutability": "nonpayable",
      "type": "function"
    },
    {
      "inputs": [],
      "name": "storedBalance",
      "outputs": [
        {
          "internalType": "uint256",
          "name": "",
          "type": "uint256"
        }
      ],
      "stateMutability": "view",
      "type": "function"
    },
    {
      "inputs": [
        {
          "internalType": "bytes4",
          "name": "interfaceID",
          "type": "bytes4"
        }
      ],
      "name": "supportsInterface",
      "outputs": [
        {
          "internalType": "bool",
          "name": "",
          "type": "bool"
        }
      ],
      "stateMutability": "view",
      "type": "function"
    },
    {
      "inputs": [],
      "name": "underlying",
      "outputs": [
        {
          "internalType": "address",
          "name": "",
          "type": "address"
        }
      ],
      "stateMutability": "view",
      "type": "function"
    },
    {
      "inputs": [],
      "name": "underlyingJoin",
      "outputs": [
        {
          "internalType": "address",
          "name": "",
          "type": "address"
        }
      ],
      "stateMutability": "view",
      "type": "function"
    }
  ],
  "bytecode": {
    "object": "0x6101406040526000196003553480156200001857600080fd5b5060405162002344380380620023448339810160408190526200003b9162000208565b62000048600033620000b5565b6200005c6001600160e01b0319806200014d565b6001600160a01b0394851660805292841660a05264ffffffffff811660e05261ffff831661010052921660c052600160089290921b65ffffffffff001660309190911b67ffff000000000000161717610120526200028e565b6001600160e01b031982166000908152602081815260408083206001600160a01b038516845290915290205460ff1662000149576001600160e01b031982166000818152602081815260408083206001600160a01b0386168085529252808320805460ff1916600117905551339391927fe6231789d19137da31d0550f4ba9ee379020a8cfb64cb79bf1790c996d2e616591a45b5050565b6001600160e01b031981166200017f836001600160e01b03191660009081526020819052604090206001015460e01b90565b6001600160e01b0319161462000149576001600160e01b0319828116600081815260208190526040808220600101805463ffffffff191660e087901c17905551928416927fd348e2220a50b4500ec353f6e802d2f14dd1b5d6786148fd1bbcc570bf92d4739190a35050565b80516001600160a01b03811681146200020357600080fd5b919050565b600080600080600060a086880312156200022157600080fd5b6200022c86620001eb565b94506200023c60208701620001eb565b93506200024c60408701620001eb565b9250606086015164ffffffffff811681146200026757600080fd5b608087015190925061ffff811681146200028057600080fd5b809150509295509295909350565b60805160a05160c05160e0516101005161012051611fcc62000378600039600081816103f10152818161078801528181610cf101528181610fc801528181611129015281816115f601526116e201526000818161028801526109450152600081816102c2015281816105620152818161082e015281816110790152818161123e015261157401526000818161043c01528181610aec01528181610b1301526112d701526000818161039501528181610a3f01528181610acb0152610ed0015260008181610308015281816109bf01528181610cb50152818161116c015261161c0152611fcc6000f3fe608060405234801561001057600080fd5b50600436106101e05760003560e01c8063a4f0d7d01161010f578063ceae3abd116100a2578063effae35311610071578063effae353146104a0578063f06c2dfc146104b3578063f23a6e61146104c6578063ffffffff146103b757600080fd5b8063ceae3abd1461045e578063de02cde714610471578063e9eca99414610484578063ea8cf74b1461048d57600080fd5b8063bac7340c116100de578063bac7340c14610413578063bc197c811461041c578063be040fb01461042f578063c5d877ac1461043757600080fd5b8063a4f0d7d0146103b7578063ad82110f146103c6578063ae93c1b5146103d9578063af640d0f146103ec57600080fd5b8063341f141d116101875780635909c12f116101565780635909c12f146101e55780635ba5e9f01461036a578063687f0e4c1461037d5780636f307dc31461039057600080fd5b8063341f141d146102fa57806338d52e0f1461030357806344faded014610342578063559742d91461035757600080fd5b806312e5ff77116101c357806312e5ff77146102415780631e57c37d1461026c5780631feeece214610283578063204f83f9146102bd57600080fd5b80156101e557806301ffc9a71461020b57806310ab94321461022e575b600080fd5b6101ed600081565b6040516001600160e01b031990911681526020015b60405180910390f35b61021e610219366004611842565b6104d9565b6040519015158152602001610202565b61021e61023c366004611880565b610510565b61025461024f3660046118cc565b610523565b6040516001600160801b039091168152602001610202565b61027560001981565b604051908152602001610202565b6102aa7f000000000000000000000000000000000000000000000000000000000000000081565b60405161ffff9091168152602001610202565b6102e47f000000000000000000000000000000000000000000000000000000000000000081565b60405164ffffffffff9091168152602001610202565b61027560025481565b61032a7f000000000000000000000000000000000000000000000000000000000000000081565b6040516001600160a01b039091168152602001610202565b610355610350366004611880565b6105e1565b005b610355610365366004611842565b61061f565b6101ed610378366004611842565b61065e565b61035561038b366004611880565b610669565b61032a7f000000000000000000000000000000000000000000000000000000000000000081565b6101ed6001600160e01b031981565b6103556103d4366004611941565b6106c4565b6103556103e7366004611a00565b610746565b6102757f000000000000000000000000000000000000000000000000000000000000000081565b61027560035481565b6101ed61042a366004611ac1565b610779565b61035561082c565b61032a7f000000000000000000000000000000000000000000000000000000000000000081565b61025461046c3660046118cc565b610c10565b61035561047f366004611880565b610c4e565b61027560015481565b61035561049b366004611b80565b610c81565b6103556104ae366004611941565b610e27565b6103556104c1366004611bc2565b610e9c565b6101ed6104d4366004611be0565b610fc4565b60006001600160e01b031982166301ffc9a760e01b148061050a57506001600160e01b03198216630271189760e51b145b92915050565b600061051c8383611040565b9392505050565b600061053b6000356001600160e01b03191633611040565b6105605760405162461bcd60e51b815260040161055790611c5c565b60405180910390fd5b7f000000000000000000000000000000000000000000000000000000000000000064ffffffffff164210156105a0576105998383611075565b905061050a565b6002546000036105b2576105b261082c565b610599836105dc6105d7600254866001600160801b03166111cf90919063ffffffff16565b6111ed565b61123a565b816105f46105ee8261134c565b33611040565b6106105760405162461bcd60e51b815260040161055790611c83565b61061a838361136e565b505050565b8061062c6105ee8261134c565b6106485760405162461bcd60e51b815260040161055790611c83565b61065a826001600160e01b03196113dd565b5050565b600061050a8261134c565b6001600160a01b03811633146106ba5760405162461bcd60e51b81526020600482015260166024820152752932b737bab731b29037b7363c903337b91039b2b63360511b6044820152606401610557565b61065a828261136e565b60005b825181101561061a576106f56105ee8483815181106106e8576106e8611ca7565b602002602001015161134c565b6107115760405162461bcd60e51b815260040161055790611c83565b61073483828151811061072657610726611ca7565b60200260200101518361136e565b8061073e81611cd3565b9150506106c7565b816107536105ee8261134c565b61076f5760405162461bcd60e51b815260040161055790611c83565b61061a83836113dd565b600085815b81811015610815577f00000000000000000000000000000000000000000000000000000000000000008989838181106107b9576107b9611ca7565b90506020020135146108055760405162461bcd60e51b8152602060048201526015602482015274151bdad95b881a59081b9bdd081858d8d95c1d1959605a1b6044820152606401610557565b61080e81611cd3565b905061077e565b5063bc197c8160e01b9a9950505050505050505050565b7f000000000000000000000000000000000000000000000000000000000000000064ffffffffff164210156108995760405162461bcd60e51b81526020600482015260136024820152724f6e6c79206166746572206d6174757269747960681b6044820152606401610557565b600254156108dc5760405162461bcd60e51b815260206004820152601060248201526f105b1c9958591e481c995919595b595960821b6044820152606401610557565b604080516001808252818301909252600091816020015b6040805160c08101825260008082526020808301829052928201819052606082018190526080820181905260a082015282526000199092019101816108f35750506040805160c08101825260008082527f000000000000000000000000000000000000000000000000000000000000000061ffff1660208301529181018290526060810182905260016080820181905260a082015282519293509183919061099d5761099d611ca7565b6020908102919091010152604051633735195360e11b81526001600160a01b037f00000000000000000000000000000000000000000000000000000000000000001690636e6a32a6906109f69030908590600401611cec565b600060405180830381600087803b158015610a1057600080fd5b505af1158015610a24573d6000803e3d6000fd5b50506040516370a0823160e01b8152306004820152600092507f00000000000000000000000000000000000000000000000000000000000000006001600160a01b031691506370a0823190602401602060405180830381865afa158015610a8f573d6000803e3d6000fd5b505050506040513d601f19601f82011682018060405250810190610ab39190611d9b565b600154909150610ac3828261145c565b600255610b117f00000000000000000000000000000000000000000000000000000000000000007f00000000000000000000000000000000000000000000000000000000000000008461147b565b7f00000000000000000000000000000000000000000000000000000000000000006001600160a01b031663ceae3abd30610b4a856111ed565b6040516001600160e01b031960e085901b1681526001600160a01b0390921660048301526001600160801b031660248201526044016020604051808303816000875af1158015610b9e573d6000803e3d6000fd5b505050506040513d601f19601f82011682018060405250810190610bc29190611db4565b506000600155600254604080518381526020810185905280820192909252517f87efe79f362036cc4820341f6a35939a512b18c3432c5e367a6cfd09d41d74839181900360600190a1505050565b6000610c286000356001600160e01b03191633611040565b610c445760405162461bcd60e51b815260040161055790611c5c565b61051c8383611570565b81610c5b6105ee8261134c565b610c775760405162461bcd60e51b815260040161055790611c83565b61061a8383611755565b610c976000356001600160e01b03191633611040565b610cb35760405162461bcd60e51b815260040161055790611c5c565b7f00000000000000000000000000000000000000000000000000000000000000006001600160a01b0316836001600160a01b0316141580610d1457507f00000000000000000000000000000000000000000000000000000000000000008214155b610d555760405162461bcd60e51b8152602060048201526012602482015271155cd948195e1a5d08199bdc88185cdcd95d60721b6044820152606401610557565b604051627eeac760e11b81523060048201819052602482018490526001600160a01b0385169163f242432a919084908690859062fdd58e90604401602060405180830381865afa158015610dad573d6000803e3d6000fd5b505050506040513d601f19601f82011682018060405250810190610dd19190611d9b565b6040518563ffffffff1660e01b8152600401610df09493929190611dd1565b600060405180830381600087803b158015610e0a57600080fd5b505af1158015610e1e573d6000803e3d6000fd5b50505050505050565b60005b825181101561061a57610e4b6105ee8483815181106106e8576106e8611ca7565b610e675760405162461bcd60e51b815260040161055790611c83565b610e8a838281518110610e7c57610e7c611ca7565b602002602001015183611755565b80610e9481611cd3565b915050610e2a565b610eb26000356001600160e01b03191633611040565b610ece5760405162461bcd60e51b815260040161055790611c5c565b7f00000000000000000000000000000000000000000000000000000000000000006001600160a01b0316826001600160a01b031603610f4f5760405162461bcd60e51b815260206004820152601760248201527f557365206578697420666f7220756e6465726c79696e670000000000000000006044820152606401610557565b6040516370a0823160e01b815230600482015261065a90839083906001600160a01b038316906370a0823190602401602060405180830381865afa158015610f9b573d6000803e3d6000fd5b505050506040513d601f19601f82011682018060405250810190610fbf9190611d9b565b61147b565b60007f0000000000000000000000000000000000000000000000000000000000000000851461102d5760405162461bcd60e51b8152602060048201526015602482015274151bdad95b881a59081b9bdd081858d8d95c1d1959605a1b6044820152606401610557565b5063f23a6e6160e01b9695505050505050565b6001600160e01b031982166000908152602081815260408083206001600160a01b038516845290915290205460ff1692915050565b60007f000000000000000000000000000000000000000000000000000000000000000064ffffffffff1642106110e45760405162461bcd60e51b81526020600482015260146024820152734f6e6c79206265666f7265206d6174757269747960601b6044820152606401610557565b816001600160801b0316600160008282546110ff9190611e09565b9091555050604051637921219560e11b81523060048201526001600160a01b0384811660248301527f000000000000000000000000000000000000000000000000000000000000000060448301526001600160801b038416606483015260a06084830152600060a48301527f0000000000000000000000000000000000000000000000000000000000000000169063f242432a9060c401600060405180830381600087803b1580156111b057600080fd5b505af11580156111c4573d6000803e3d6000fd5b509395945050505050565b60006111db8284611e20565b670de0b6b3a764000090049392505050565b60006001600160801b038211156112365760405162461bcd60e51b815260206004820152600d60248201526c43617374206f766572666c6f7760981b6044820152606401610557565b5090565b60007f000000000000000000000000000000000000000000000000000000000000000064ffffffffff164210156112a95760405162461bcd60e51b81526020600482015260136024820152724f6e6c79206166746572206d6174757269747960681b6044820152606401610557565b6040516312e5ff7760e01b81526001600160a01b0384811660048301526001600160801b03841660248301527f000000000000000000000000000000000000000000000000000000000000000016906312e5ff77906044016020604051808303816000875af1158015611320573d6000803e3d6000fd5b505050506040513d601f19601f820116820180604052508101906113449190611db4565b509092915050565b6001600160e01b03191660009081526020819052604090206001015460e01b90565b6113788282611040565b1561065a576001600160e01b031982166000818152602081815260408083206001600160a01b0386168085529252808320805460ff1916905551339391927f4ddc7b757e7bdd7254a9cd39452d307a52761bc824625c6a33104a075d8099e691a45050565b6001600160e01b031981166113f18361134c565b6001600160e01b0319161461065a576001600160e01b0319828116600081815260208190526040808220600101805463ffffffff191660e087901c17905551928416927fd348e2220a50b4500ec353f6e802d2f14dd1b5d6786148fd1bbcc570bf92d4739190a35050565b60008161147184670de0b6b3a7640000611e20565b61051c9190611e3f565b604080516001600160a01b038481166024830152604480830185905283518084039091018152606490920183526020820180516001600160e01b031663a9059cbb60e01b17905291516000928392908716916114d79190611e91565b6000604051808303816000865af19150503d8060008114611514576040519150601f19603f3d011682016040523d82523d6000602084013e611519565b606091505b50915091508180156115435750805115806115435750808060200190518101906115439190611ead565b61156957611550816117c6565b60405162461bcd60e51b81526004016105579190611ecf565b5050505050565b60007f000000000000000000000000000000000000000000000000000000000000000064ffffffffff1642106115df5760405162461bcd60e51b81526020600482015260146024820152734f6e6c79206265666f7265206d6174757269747960601b6044820152606401610557565b600154604051627eeac760e11b81523060048201527f000000000000000000000000000000000000000000000000000000000000000060248201527f0000000000000000000000000000000000000000000000000000000000000000919060009082906001600160a01b0385169062fdd58e90604401602060405180830381865afa158015611672573d6000803e3d6000fd5b505050506040513d601f19601f820116820180604052508101906116969190611d9b565b6116a09190611e09565b6001600160801b03861683810160015590915081101561174b57604051637921219560e11b81526001600160a01b0384169063f242432a9061171890899030907f0000000000000000000000000000000000000000000000000000000000000000906001600160801b038c1688900390600401611dd1565b600060405180830381600087803b15801561173257600080fd5b505af1158015611746573d6000803e3d6000fd5b505050505b5092949350505050565b61175f8282611040565b61065a576001600160e01b031982166000818152602081815260408083206001600160a01b0386168085529252808320805460ff1916600117905551339391927fe6231789d19137da31d0550f4ba9ee379020a8cfb64cb79bf1790c996d2e616591a45050565b606060448251101561180b57505060408051808201909152601d81527f5472616e73616374696f6e2072657665727465642073696c656e746c79000000602082015290565b6004820191508180602001905181019061050a9190611f02565b80356001600160e01b03198116811461183d57600080fd5b919050565b60006020828403121561185457600080fd5b61051c82611825565b6001600160a01b038116811461187257600080fd5b50565b803561183d8161185d565b6000806040838503121561189357600080fd5b61189c83611825565b915060208301356118ac8161185d565b809150509250929050565b6001600160801b038116811461187257600080fd5b600080604083850312156118df57600080fd5b82356118ea8161185d565b915060208301356118ac816118b7565b634e487b7160e01b600052604160045260246000fd5b604051601f8201601f1916810167ffffffffffffffff81118282101715611939576119396118fa565b604052919050565b6000806040838503121561195457600080fd5b823567ffffffffffffffff8082111561196c57600080fd5b818501915085601f83011261198057600080fd5b8135602082821115611994576119946118fa565b8160051b92506119a5818401611910565b82815292840181019281810190898511156119bf57600080fd5b948201945b848610156119e4576119d586611825565b825294820194908201906119c4565b96506119f39050878201611875565b9450505050509250929050565b60008060408385031215611a1357600080fd5b611a1c83611825565b9150611a2a60208401611825565b90509250929050565b60008083601f840112611a4557600080fd5b50813567ffffffffffffffff811115611a5d57600080fd5b6020830191508360208260051b8501011115611a7857600080fd5b9250929050565b60008083601f840112611a9157600080fd5b50813567ffffffffffffffff811115611aa957600080fd5b602083019150836020828501011115611a7857600080fd5b60008060008060008060008060a0898b031215611add57600080fd5b8835611ae88161185d565b97506020890135611af88161185d565b9650604089013567ffffffffffffffff80821115611b1557600080fd5b611b218c838d01611a33565b909850965060608b0135915080821115611b3a57600080fd5b611b468c838d01611a33565b909650945060808b0135915080821115611b5f57600080fd5b50611b6c8b828c01611a7f565b999c989b5096995094979396929594505050565b600080600060608486031215611b9557600080fd5b8335611ba08161185d565b9250602084013591506040840135611bb78161185d565b809150509250925092565b60008060408385031215611bd557600080fd5b823561189c8161185d565b60008060008060008060a08789031215611bf957600080fd5b8635611c048161185d565b95506020870135611c148161185d565b94506040870135935060608701359250608087013567ffffffffffffffff811115611c3e57600080fd5b611c4a89828a01611a7f565b979a9699509497509295939492505050565b6020808252600d908201526c1058d8d95cdcc819195b9a5959609a1b604082015260600190565b6020808252600a908201526927b7363c9030b236b4b760b11b604082015260600190565b634e487b7160e01b600052603260045260246000fd5b634e487b7160e01b600052601160045260246000fd5b600060018201611ce557611ce5611cbd565b5060010190565b6001600160a01b0383168152604060208083018290528351838301819052600092916060918286019087830186805b83811015611d8b578251805160078110611d4357634e487b7160e01b84526021600452602484fd5b86528087015161ffff16878701528881015189870152878101518887015260808082015115159087015260a09081015115159086015260c09094019391850191600101611d1b565b50929a9950505050505050505050565b600060208284031215611dad57600080fd5b5051919050565b600060208284031215611dc657600080fd5b815161051c816118b7565b6001600160a01b0394851681529290931660208301526040820152606081019190915260a06080820181905260009082015260c00190565b600082821015611e1b57611e1b611cbd565b500390565b6000816000190483118215151615611e3a57611e3a611cbd565b500290565b600082611e5c57634e487b7160e01b600052601260045260246000fd5b500490565b60005b83811015611e7c578181015183820152602001611e64565b83811115611e8b576000848401525b50505050565b60008251611ea3818460208701611e61565b9190910192915050565b600060208284031215611ebf57600080fd5b8151801515811461051c57600080fd5b6020815260008251806020840152611eee816040850160208701611e61565b601f01601f19169190910160400192915050565b600060208284031215611f1457600080fd5b815167ffffffffffffffff80821115611f2c57600080fd5b818401915084601f830112611f4057600080fd5b815181811115611f5257611f526118fa565b611f65601f8201601f1916602001611910565b9150808252856020828501011115611f7c57600080fd5b611f8d816020840160208601611e61565b5094935050505056fea2646970667358221220c1586b9c1deee2b664bf05c2b383c3a34548e026a430be94c756dc26efe8ddbd64736f6c634300080e0033",
    "linkReferences": {}
  },
  "methodIdentifiers": {
    "FLASH_LOANS_DISABLED()": "1e57c37d",
    "LOCK()": "a4f0d7d0",
    "LOCK8605463013()": "ffffffff",
    "ROOT()": "5909c12f",
    "ROOT4146650865()": "00000000",
    "accrual()": "341f141d",
    "asset()": "38d52e0f",
    "currencyId()": "1feeece2",
    "exit(address,uint128)": "12e5ff77",
    "flashFeeFactor()": "bac7340c",
    "getRoleAdmin(bytes4)": "5ba5e9f0",
    "grantRole(bytes4,address)": "de02cde7",
    "grantRoles(bytes4[],address)": "effae353",
    "hasRole(bytes4,address)": "10ab9432",
    "id()": "af640d0f",
    "join(address,uint128)": "ceae3abd",
    "lockRole(bytes4)": "559742d9",
    "maturity()": "204f83f9",
    "onERC1155BatchReceived(address,address,uint256[],uint256[],bytes)": "bc197c81",
    "onERC1155Received(address,address,uint256,uint256,bytes)": "f23a6e61",
    "redeem()": "be040fb0",
    "renounceRole(bytes4,address)": "687f0e4c",
    "retrieve(address,address)": "f06c2dfc",
    "retrieveERC1155(address,uint256,address)": "ea8cf74b",
    "revokeRole(bytes4,address)": "44faded0",
    "revokeRoles(bytes4[],address)": "ad82110f",
    "setRoleAdmin(bytes4,bytes4)": "ae93c1b5",
    "storedBalance()": "e9eca994",
    "supportsInterface(bytes4)": "01ffc9a7",
    "underlying()": "6f307dc3",
    "underlyingJoin()": "c5d877ac"
  },
  "id": 17
}