{
  "abi": [
    {
      "inputs": [
        {
          "internalType": "contract ICauldronGov",
          "name": "cauldron_",
          "type": "address"
        },
        {
          "internalType": "contract ILadleGov",
          "name": "ladle_",
          "type": "address"
        },
        {
          "internalType": "contract IWitchCustom",
          "name": "witch_",
          "type": "address"
        },
        {
          "internalType": "contract IEmergencyBrake",
          "name": "cloak_",
          "type": "address"
        },
        {
          "internalType": "contract IChainlinkMultiOracle",
          "name": "chainlinkMultiOracle_",
          "type": "address"
        }
      ],
      "stateMutability": "nonpayable",
      "type": "constructor"
    },
    {
      "anonymous": false,
      "inputs": [
        {
          "indexed": true,
          "internalType": "bytes4",
          "name": "role",
          "type": "bytes4"
        },
        {
          "indexed": true,
          "internalType": "bytes4",
          "name": "newAdminRole",
          "type": "bytes4"
        }
      ],
      "name": "RoleAdminChanged",
      "type": "event"
    },
    {
      "anonymous": false,
      "inputs": [
        {
          "indexed": true,
          "internalType": "bytes4",
          "name": "role",
          "type": "bytes4"
        },
        {
          "indexed": true,
          "internalType": "address",
          "name": "account",
          "type": "address"
        },
        {
          "indexed": true,
          "internalType": "address",
          "name": "sender",
          "type": "address"
        }
      ],
      "name": "RoleGranted",
      "type": "event"
    },
    {
      "anonymous": false,
      "inputs": [
        {
          "indexed": true,
          "internalType": "bytes4",
          "name": "role",
          "type": "bytes4"
        },
        {
          "indexed": true,
          "internalType": "address",
          "name": "account",
          "type": "address"
        },
        {
          "indexed": true,
          "internalType": "address",
          "name": "sender",
          "type": "address"
        }
      ],
      "name": "RoleRevoked",
      "type": "event"
    },
    {
      "inputs": [],
      "name": "EXIT",
      "outputs": [
        {
          "internalType": "bytes4",
          "name": "",
          "type": "bytes4"
        }
      ],
      "stateMutability": "view",
      "type": "function"
    },
    {
      "inputs": [],
      "name": "JOIN",
      "outputs": [
        {
          "internalType": "bytes4",
          "name": "",
          "type": "bytes4"
        }
      ],
      "stateMutability": "view",
      "type": "function"
    },
    {
      "inputs": [],
      "name": "LOCK",
      "outputs": [
        {
          "internalType": "bytes4",
          "name": "",
          "type": "bytes4"
        }
      ],
      "stateMutability": "view",
      "type": "function"
    },
    {
      "inputs": [],
      "name": "LOCK8605463013",
      "outputs": [
        {
          "internalType": "bytes4",
          "name": "",
          "type": "bytes4"
        }
      ],
      "stateMutability": "view",
      "type": "function"
    },
    {
      "inputs": [],
      "name": "ROOT",
      "outputs": [
        {
          "internalType": "bytes4",
          "name": "",
          "type": "bytes4"
        }
      ],
      "stateMutability": "view",
      "type": "function"
    },
    {
      "inputs": [],
      "name": "ROOT4146650865",
      "outputs": [
        {
          "internalType": "bytes4",
          "name": "",
          "type": "bytes4"
        }
      ],
      "stateMutability": "view",
      "type": "function"
    },
    {
      "inputs": [
        {
          "internalType": "bytes6",
          "name": "assetId",
          "type": "bytes6"
        },
        {
          "internalType": "address",
          "name": "assetAddress",
          "type": "address"
        },
        {
          "internalType": "address",
          "name": "joinAddress",
          "type": "address"
        },
        {
          "components": [
            {
              "internalType": "bytes6",
              "name": "baseId",
              "type": "bytes6"
            },
            {
              "internalType": "address",
              "name": "base",
              "type": "address"
            },
            {
              "internalType": "bytes6",
              "name": "quoteId",
              "type": "bytes6"
            },
            {
              "internalType": "address",
              "name": "quote",
              "type": "address"
            },
            {
              "internalType": "address",
              "name": "source",
              "type": "address"
            }
          ],
          "internalType": "struct fCashWand.ChainlinkSource[]",
          "name": "chainlinkSources",
          "type": "tuple[]"
        },
        {
          "components": [
            {
              "internalType": "bytes6",
              "name": "ilkId",
              "type": "bytes6"
            },
            {
              "internalType": "uint32",
              "name": "duration",
              "type": "uint32"
            },
            {
              "internalType": "uint64",
              "name": "initialOffer",
              "type": "uint64"
            },
            {
              "internalType": "uint96",
              "name": "line",
              "type": "uint96"
            },
            {
              "internalType": "uint24",
              "name": "dust",
              "type": "uint24"
            },
            {
              "internalType": "uint8",
              "name": "dec",
              "type": "uint8"
            }
          ],
          "internalType": "struct fCashWand.AuctionLimit[]",
          "name": "auctionLimits",
          "type": "tuple[]"
        },
        {
          "components": [
            {
              "internalType": "bytes6",
              "name": "baseId",
              "type": "bytes6"
            },
            {
              "internalType": "bytes6",
              "name": "ilkId",
              "type": "bytes6"
            },
            {
              "internalType": "uint32",
              "name": "ratio",
              "type": "uint32"
            },
            {
              "internalType": "uint96",
              "name": "line",
              "type": "uint96"
            },
            {
              "internalType": "uint24",
              "name": "dust",
              "type": "uint24"
            },
            {
              "internalType": "uint8",
              "name": "dec",
              "type": "uint8"
            }
          ],
          "internalType": "struct fCashWand.DebtLimit[]",
          "name": "debtLimits",
          "type": "tuple[]"
        },
        {
          "components": [
            {
              "internalType": "bytes6",
              "name": "series",
              "type": "bytes6"
            },
            {
              "internalType": "bytes6[]",
              "name": "ilkIds",
              "type": "bytes6[]"
            }
          ],
          "internalType": "struct fCashWand.SeriesIlk[]",
          "name": "seriesIlks",
          "type": "tuple[]"
        }
      ],
      "name": "addfCashCollateral",
      "outputs": [],
      "stateMutability": "nonpayable",
      "type": "function"
    },
    {
      "inputs": [],
      "name": "cauldron",
      "outputs": [
        {
          "internalType": "contract ICauldronGov",
          "name": "",
          "type": "address"
        }
      ],
      "stateMutability": "view",
      "type": "function"
    },
    {
      "inputs": [],
      "name": "chainlinkMultiOracle",
      "outputs": [
        {
          "internalType": "contract IChainlinkMultiOracle",
          "name": "",
          "type": "address"
        }
      ],
      "stateMutability": "view",
      "type": "function"
    },
    {
      "inputs": [],
      "name": "cloak",
      "outputs": [
        {
          "internalType": "contract IEmergencyBrake",
          "name": "",
          "type": "address"
        }
      ],
      "stateMutability": "view",
      "type": "function"
    },
    {
      "inputs": [
        {
          "internalType": "bytes4",
          "name": "role",
          "type": "bytes4"
        }
      ],
      "name": "getRoleAdmin",
      "outputs": [
        {
          "internalType": "bytes4",
          "name": "",
          "type": "bytes4"
        }
      ],
      "stateMutability": "view",
      "type": "function"
    },
    {
      "inputs": [
        {
          "internalType": "bytes4",
          "name": "role",
          "type": "bytes4"
        },
        {
          "internalType": "address",
          "name": "account",
          "type": "address"
        }
      ],
      "name": "grantRole",
      "outputs": [],
      "stateMutability": "nonpayable",
      "type": "function"
    },
    {
      "inputs": [
        {
          "internalType": "bytes4[]",
          "name": "roles",
          "type": "bytes4[]"
        },
        {
          "internalType": "address",
          "name": "account",
          "type": "address"
        }
      ],
      "name": "grantRoles",
      "outputs": [],
      "stateMutability": "nonpayable",
      "type": "function"
    },
    {
      "inputs": [
        {
          "internalType": "bytes4",
          "name": "role",
          "type": "bytes4"
        },
        {
          "internalType": "address",
          "name": "account",
          "type": "address"
        }
      ],
      "name": "hasRole",
      "outputs": [
        {
          "internalType": "bool",
          "name": "",
          "type": "bool"
        }
      ],
      "stateMutability": "view",
      "type": "function"
    },
    {
      "inputs": [],
      "name": "ladle",
      "outputs": [
        {
          "internalType": "contract ILadleGov",
          "name": "",
          "type": "address"
        }
      ],
      "stateMutability": "view",
      "type": "function"
    },
    {
      "inputs": [
        {
          "internalType": "bytes4",
          "name": "role",
          "type": "bytes4"
        }
      ],
      "name": "lockRole",
      "outputs": [],
      "stateMutability": "nonpayable",
      "type": "function"
    },
    {
      "inputs": [
        {
          "internalType": "bytes4",
          "name": "role",
          "type": "bytes4"
        },
        {
          "internalType": "address",
          "name": "account",
          "type": "address"
        }
      ],
      "name": "renounceRole",
      "outputs": [],
      "stateMutability": "nonpayable",
      "type": "function"
    },
    {
      "inputs": [
        {
          "internalType": "bytes4",
          "name": "role",
          "type": "bytes4"
        },
        {
          "internalType": "address",
          "name": "account",
          "type": "address"
        }
      ],
      "name": "revokeRole",
      "outputs": [],
      "stateMutability": "nonpayable",
      "type": "function"
    },
    {
      "inputs": [
        {
          "internalType": "bytes4[]",
          "name": "roles",
          "type": "bytes4[]"
        },
        {
          "internalType": "address",
          "name": "account",
          "type": "address"
        }
      ],
      "name": "revokeRoles",
      "outputs": [],
      "stateMutability": "nonpayable",
      "type": "function"
    },
    {
      "inputs": [
        {
          "internalType": "bytes4",
          "name": "role",
          "type": "bytes4"
        },
        {
          "internalType": "bytes4",
          "name": "adminRole",
          "type": "bytes4"
        }
      ],
      "name": "setRoleAdmin",
      "outputs": [],
      "stateMutability": "nonpayable",
      "type": "function"
    },
    {
      "inputs": [],
      "name": "witch",
      "outputs": [
        {
          "internalType": "contract IWitchCustom",
          "name": "",
          "type": "address"
        }
      ],
      "stateMutability": "view",
      "type": "function"
    }
  ],
  "bytecode": {
    "object": "0x60806040523480156200001157600080fd5b5060405162001c3438038062001c34833981016040819052620000349162000207565b62000041600033620000b8565b620000556001600160e01b03198062000150565b600180546001600160a01b03199081166001600160a01b0397881617909155600280548216958716959095179094556005805485169386169390931790925560038054841691851691909117905560048054909216921691909117905562000287565b6001600160e01b031982166000908152602081815260408083206001600160a01b038516845290915290205460ff166200014c576001600160e01b031982166000818152602081815260408083206001600160a01b0386168085529252808320805460ff1916600117905551339391927fe6231789d19137da31d0550f4ba9ee379020a8cfb64cb79bf1790c996d2e616591a45b5050565b6001600160e01b0319811662000182836001600160e01b03191660009081526020819052604090206001015460e01b90565b6001600160e01b031916146200014c576001600160e01b0319828116600081815260208190526040808220600101805463ffffffff191660e087901c17905551928416927fd348e2220a50b4500ec353f6e802d2f14dd1b5d6786148fd1bbcc570bf92d4739190a35050565b6001600160a01b03811681146200020457600080fd5b50565b600080600080600060a086880312156200022057600080fd5b85516200022d81620001ee565b60208701519095506200024081620001ee565b60408701519094506200025381620001ee565b60608701519093506200026681620001ee565b60808701519092506200027981620001ee565b809150509295509295909350565b61199d80620002976000396000f3fe608060405234801561001057600080fd5b50600436106101325760003560e01c806394b8e38f116100b8578063ae93c1b51161007c578063ae93c1b514610270578063ceec5d9614610283578063de02cde714610296578063effae353146102a9578063f6e84aca146102bc578063ffffffff1461024e57600080fd5b806394b8e38f146101fd57806397ff6a0414610228578063a308e8511461023b578063a4f0d7d01461024e578063ad82110f1461025d57600080fd5b80635909c12f116100ff5780635909c12f146101375780635ba5e9f0146101bb578063687f0e4c146101ce57806376563cec146101e15780637f968148146101ef57600080fd5b801561013757806310ab94321461015d57806315548d521461018057806344faded014610195578063559742d9146101a8575b600080fd5b61013f600081565b6040516001600160e01b031990911681526020015b60405180910390f35b61017061016b36600461110f565b6102cf565b6040519015158152602001610154565b61019361018e36600461122d565b6102e2565b005b6101936101a336600461110f565b610476565b6101936101b6366004611329565b6104b4565b61013f6101c9366004611329565b6104f3565b6101936101dc36600461110f565b610504565b61013f6312e5ff7760e01b81565b61013f63ceae3abd60e01b81565b600254610210906001600160a01b031681565b6040516001600160a01b039091168152602001610154565b600154610210906001600160a01b031681565b600554610210906001600160a01b031681565b61013f6001600160e01b031981565b61019361026b3660046113f7565b61055f565b61019361027e3660046114a5565b6105e1565b600354610210906001600160a01b031681565b6101936102a436600461110f565b610614565b6101936102b73660046113f7565b610647565b600454610210906001600160a01b031681565b60006102db83836106bc565b9392505050565b6102f86000356001600160e01b031916336106bc565b6103395760405162461bcd60e51b815260206004820152600d60248201526c1058d8d95cdcc819195b9a5959609a1b60448201526064015b60405180910390fd5b6103448b8b8b6106f1565b60005b878110156103af576000898983818110610363576103636114cf565b905060a0020180360381019061037991906114e5565b905061039c816000015182602001518360400151846060015185608001516109d2565b50806103a781611572565b915050610347565b5061045f898787808060200260200160405190810160405280939291908181526020016000905b82821015610402576103f360c083028601368190038101906115e8565b815260200190600101906103d6565b50505050508686808060200260200160405190810160405280939291908181526020016000905b828210156104555761044660c08302860136819003810190611677565b81526020019060010190610429565b5050505050610a63565b6104698282610d04565b5050505050505050505050565b8161048961048382610dbd565b336106bc565b6104a55760405162461bcd60e51b8152600401610330906116b9565b6104af8383610ddf565b505050565b806104c161048382610dbd565b6104dd5760405162461bcd60e51b8152600401610330906116b9565b6104ef826001600160e01b0319610e4e565b5050565b60006104fe82610dbd565b92915050565b6001600160a01b03811633146105555760405162461bcd60e51b81526020600482015260166024820152752932b737bab731b29037b7363c903337b91039b2b63360511b6044820152606401610330565b6104ef8282610ddf565b60005b82518110156104af57610590610483848381518110610583576105836114cf565b6020026020010151610dbd565b6105ac5760405162461bcd60e51b8152600401610330906116b9565b6105cf8382815181106105c1576105c16114cf565b602002602001015183610ddf565b806105d981611572565b915050610562565b816105ee61048382610dbd565b61060a5760405162461bcd60e51b8152600401610330906116b9565b6104af8383610e4e565b8161062161048382610dbd565b61063d5760405162461bcd60e51b8152600401610330906116b9565b6104af8383610ecd565b60005b82518110156104af5761066b610483848381518110610583576105836114cf565b6106875760405162461bcd60e51b8152600401610330906116b9565b6106aa83828151811061069c5761069c6114cf565b602002602001015183610ecd565b806106b481611572565b91505061064a565b6001600160e01b031982166000908152602081815260408083206001600160a01b038516845290915290205460ff1692915050565b6001546040516339997e7960e21b81526001600160a01b039091169063e665f9e49061072390869086906004016116dd565b600060405180830381600087803b15801561073d57600080fd5b505af1158015610751573d6000803e3d6000fd5b5060009250600291506107619050565b60405190808252806020026020018201604052801561078a578160200160208202803683370190505b50905063ceae3abd60e01b816000815181106107a8576107a86114cf565b6001600160e01b03199092166020928302919091019091015280516312e5ff7760e01b90829060019081106107df576107df6114cf565b6001600160e01b03199092166020928302919091019091015260025460405163effae35360e01b81526001600160a01b038085169263effae3539261082a9286921690600401611700565b600060405180830381600087803b15801561084457600080fd5b505af1158015610858573d6000803e3d6000fd5b50506002546040516349c29d2b60e01b81526001600160a01b0390911692506349c29d2b915061088e90879086906004016116dd565b600060405180830381600087803b1580156108a857600080fd5b505af11580156108bc573d6000803e3d6000fd5b5060009250600191506108cc9050565b60405190808252806020026020018201604052801561091257816020015b6040805180820190915260008152606060208201528152602001906001900390816108ea5790505b5090506040518060400160405280846001600160a01b031681526020018381525081600081518110610946576109466114cf565b602090810291909101015260035460025460405163de8a066760e01b81526001600160a01b039283169263de8a06679261098792911690859060040161175e565b6020604051808303816000875af11580156109a6573d6000803e3d6000fd5b505050506040513d601f19601f820116820180604052508101906109ca919061181e565b505050505050565b600480546040516377a9979760e11b81526001600160d01b0319808916938201939093526001600160a01b03878116602483015292861660448201528483166064820152838316608482015291169063ef532f2e9060a401600060405180830381600087803b158015610a4457600080fd5b505af1158015610a58573d6000803e3d6000fd5b505050505050505050565b60005b8251811015610ac6576000838281518110610a8357610a836114cf565b60200260200101519050610ab3816000015182602001518360400151846060015185608001518660a00151610f3e565b5080610abe81611572565b915050610a66565b5060055460405163de02cde760e01b81526312e5ff7760e01b60048201526001600160a01b039182166024820152849182169063de02cde790604401600060405180830381600087803b158015610b1c57600080fd5b505af1158015610b30573d6000803e3d6000fd5b506000925060019150610b409050565b604051908082528060200260200182016040528015610b69578160200160208202803683370190505b5090506312e5ff7760e01b81600081518110610b8757610b876114cf565b6001600160e01b03199290921660209283029190910190910152604080516001808252818301909252600091816020015b604080518082019091526000815260606020820152815260200190600190039081610bb85790505090506040518060400160405280876001600160a01b031681526020018381525081600081518110610c1357610c136114cf565b602090810291909101015260035460055460405163de8a066760e01b81526001600160a01b039283169263de8a066792610c5492911690859060040161175e565b6020604051808303816000875af1158015610c73573d6000803e3d6000fd5b505050506040513d601f19601f82011682018060405250810190610c97919061181e565b5060005b8451811015610cfb576000858281518110610cb857610cb86114cf565b60200260200101519050610ce8816000015182602001518360400151846060015185608001518660a00151610fec565b5080610cf381611572565b915050610c9b565b50505050505050565b60005b818110156104af576000838383818110610d2357610d236114cf565b9050602002810190610d359190611837565b610d3e90611857565b600154815160208301516040516353eecb7760e01b81529394506001600160a01b03909216926353eecb7792610d77929160040161190a565b600060405180830381600087803b158015610d9157600080fd5b505af1158015610da5573d6000803e3d6000fd5b50505050508080610db590611572565b915050610d07565b6001600160e01b03191660009081526020819052604090206001015460e01b90565b610de982826106bc565b156104ef576001600160e01b031982166000818152602081815260408083206001600160a01b0386168085529252808320805460ff1916905551339391927f4ddc7b757e7bdd7254a9cd39452d307a52761bc824625c6a33104a075d8099e691a45050565b6001600160e01b03198116610e6283610dbd565b6001600160e01b031916146104ef576001600160e01b0319828116600081815260208190526040808220600101805463ffffffff191660e087901c17905551928416927fd348e2220a50b4500ec353f6e802d2f14dd1b5d6786148fd1bbcc570bf92d4739190a35050565b610ed782826106bc565b6104ef576001600160e01b031982166000818152602081815260408083206001600160a01b0386168085529252808320805460ff1916600117905551339391927fe6231789d19137da31d0550f4ba9ee379020a8cfb64cb79bf1790c996d2e616591a45050565b600554604051630783c72960e11b81526001600160d01b03198816600482015263ffffffff871660248201526001600160401b03861660448201526001600160601b038516606482015262ffffff8416608482015260ff831660a48201526001600160a01b0390911690630f078e529060c4015b600060405180830381600087803b158015610fcc57600080fd5b505af1158015610fe0573d6000803e3d6000fd5b50505050505050505050565b6001546004805460405163477b5efd60e11b81526001600160d01b0319808b169382019390935291881660248301526001600160a01b03908116604483015263ffffffff8716606483015290911690638ef6bdfa90608401600060405180830381600087803b15801561105e57600080fd5b505af1158015611072573d6000803e3d6000fd5b505060015460405163d3fc152b60e01b81526001600160d01b0319808b166004830152891660248201526001600160601b038716604482015262ffffff8616606482015260ff851660848201526001600160a01b03909116925063d3fc152b915060a401610fb2565b80356001600160e01b0319811681146110f357600080fd5b919050565b80356001600160a01b03811681146110f357600080fd5b6000806040838503121561112257600080fd5b61112b836110db565b9150611139602084016110f8565b90509250929050565b80356001600160d01b0319811681146110f357600080fd5b60008083601f84011261116c57600080fd5b5081356001600160401b0381111561118357600080fd5b60208301915083602060a08302850101111561119e57600080fd5b9250929050565b60008083601f8401126111b757600080fd5b5081356001600160401b038111156111ce57600080fd5b60208301915083602060c08302850101111561119e57600080fd5b60008083601f8401126111fb57600080fd5b5081356001600160401b0381111561121257600080fd5b6020830191508360208260051b850101111561119e57600080fd5b600080600080600080600080600080600060e08c8e03121561124e57600080fd5b6112578c611142565b9a5061126560208d016110f8565b995061127360408d016110f8565b98506001600160401b038060608e0135111561128e57600080fd5b61129e8e60608f01358f0161115a565b909950975060808d01358110156112b457600080fd5b6112c48e60808f01358f016111a5565b909750955060a08d01358110156112da57600080fd5b6112ea8e60a08f01358f016111a5565b909550935060c08d013581101561130057600080fd5b506113118d60c08e01358e016111e9565b81935080925050509295989b509295989b9093969950565b60006020828403121561133b57600080fd5b6102db826110db565b634e487b7160e01b600052604160045260246000fd5b60405160c081016001600160401b038111828210171561137c5761137c611344565b60405290565b604080519081016001600160401b038111828210171561137c5761137c611344565b604051601f8201601f191681016001600160401b03811182821017156113cc576113cc611344565b604052919050565b60006001600160401b038211156113ed576113ed611344565b5060051b60200190565b6000806040838503121561140a57600080fd5b82356001600160401b0381111561142057600080fd5b8301601f8101851361143157600080fd5b80356020611446611441836113d4565b6113a4565b82815260059290921b8301810191818101908884111561146557600080fd5b938201935b8385101561148a5761147b856110db565b8252938201939082019061146a565b955061149990508682016110f8565b93505050509250929050565b600080604083850312156114b857600080fd5b6114c1836110db565b9150611139602084016110db565b634e487b7160e01b600052603260045260246000fd5b600060a082840312156114f757600080fd5b60405160a081018181106001600160401b038211171561151957611519611344565b60405261152583611142565b8152611533602084016110f8565b602082015261154460408401611142565b6040820152611555606084016110f8565b6060820152611566608084016110f8565b60808201529392505050565b60006001820161159257634e487b7160e01b600052601160045260246000fd5b5060010190565b803563ffffffff811681146110f357600080fd5b80356001600160601b03811681146110f357600080fd5b803562ffffff811681146110f357600080fd5b803560ff811681146110f357600080fd5b600060c082840312156115fa57600080fd5b61160261135a565b61160b83611142565b815261161960208401611599565b602082015260408301356001600160401b038116811461163857600080fd5b6040820152611649606084016115ad565b606082015261165a608084016115c4565b608082015261166b60a084016115d7565b60a08201529392505050565b600060c0828403121561168957600080fd5b61169161135a565b61169a83611142565b81526116a860208401611142565b602082015261163860408401611599565b6020808252600a908201526927b7363c9030b236b4b760b11b604082015260600190565b6001600160d01b03199290921682526001600160a01b0316602082015260400190565b604080825283519082018190526000906020906060840190828701845b828110156117435781516001600160e01b0319168452928401929084019060010161171d565b5050506001600160a01b039490941692019190915250919050565b6001600160a01b038381168252604060208084018290528451848301819052600093606092909183870190600581901b8801850189840188805b8481101561180c578b8403605f1901865282518051891685528701518785018b905280518b86018190529088019083908b8701905b808310156117f75783516001600160e01b0319168252928a019260019290920191908a01906117cd565b50978901979550505091860191600101611798565b50919c9b505050505050505050505050565b60006020828403121561183057600080fd5b5051919050565b60008235603e1983360301811261184d57600080fd5b9190910192915050565b60006040823603121561186957600080fd5b611871611382565b61187a83611142565b81526020808401356001600160401b0381111561189657600080fd5b840136601f8201126118a757600080fd5b80356118b5611441826113d4565b81815260059190911b820183019083810190368311156118d457600080fd5b928401925b828410156118f9576118ea84611142565b825292840192908401906118d9565b938501939093525091949350505050565b60006040820165ffffffffffff60d01b80861684526020604081860152828651808552606087019150828801945060005b8181101561195957855185168352948301949183019160010161193b565b50909897505050505050505056fea2646970667358221220539d892ae60be4230f7b10a2482bb483647cf45cc25f460a4a92e6826e4b0e3364736f6c634300080e0033",
    "linkReferences": {}
  },
  "methodIdentifiers": {
    "EXIT()": "76563cec",
    "JOIN()": "7f968148",
    "LOCK()": "a4f0d7d0",
    "LOCK8605463013()": "ffffffff",
    "ROOT()": "5909c12f",
    "ROOT4146650865()": "00000000",
    "addfCashCollateral(bytes6,address,address,(bytes6,address,bytes6,address,address)[],(bytes6,uint32,uint64,uint96,uint24,uint8)[],(bytes6,bytes6,uint32,uint96,uint24,uint8)[],(bytes6,bytes6[])[])": "15548d52",
    "cauldron()": "97ff6a04",
    "chainlinkMultiOracle()": "f6e84aca",
    "cloak()": "ceec5d96",
    "getRoleAdmin(bytes4)": "5ba5e9f0",
    "grantRole(bytes4,address)": "de02cde7",
    "grantRoles(bytes4[],address)": "effae353",
    "hasRole(bytes4,address)": "10ab9432",
    "ladle()": "94b8e38f",
    "lockRole(bytes4)": "559742d9",
    "renounceRole(bytes4,address)": "687f0e4c",
    "revokeRole(bytes4,address)": "44faded0",
    "revokeRoles(bytes4[],address)": "ad82110f",
    "setRoleAdmin(bytes4,bytes4)": "ae93c1b5",
    "witch()": "a308e851"
  },
  "id": 10
}