{
  "abi": [
    {
      "inputs": [
        {
          "internalType": "contract ICauldronGov",
          "name": "cauldron_",
          "type": "address"
        },
        {
          "internalType": "contract ILadleGov",
          "name": "ladle_",
          "type": "address"
        },
        {
          "internalType": "contract IWitchCustom",
          "name": "witch_",
          "type": "address"
        },
        {
          "internalType": "contract IEmergencyBrake",
          "name": "cloak_",
          "type": "address"
        },
        {
          "internalType": "contract IChainlinkMultiOracle",
          "name": "chainlinkMultiOracle_",
          "type": "address"
        }
      ],
      "stateMutability": "nonpayable",
      "type": "constructor"
    },
    {
      "anonymous": false,
      "inputs": [
        {
          "indexed": true,
          "internalType": "bytes4",
          "name": "role",
          "type": "bytes4"
        },
        {
          "indexed": true,
          "internalType": "bytes4",
          "name": "newAdminRole",
          "type": "bytes4"
        }
      ],
      "name": "RoleAdminChanged",
      "type": "event"
    },
    {
      "anonymous": false,
      "inputs": [
        {
          "indexed": true,
          "internalType": "bytes4",
          "name": "role",
          "type": "bytes4"
        },
        {
          "indexed": true,
          "internalType": "address",
          "name": "account",
          "type": "address"
        },
        {
          "indexed": true,
          "internalType": "address",
          "name": "sender",
          "type": "address"
        }
      ],
      "name": "RoleGranted",
      "type": "event"
    },
    {
      "anonymous": false,
      "inputs": [
        {
          "indexed": true,
          "internalType": "bytes4",
          "name": "role",
          "type": "bytes4"
        },
        {
          "indexed": true,
          "internalType": "address",
          "name": "account",
          "type": "address"
        },
        {
          "indexed": true,
          "internalType": "address",
          "name": "sender",
          "type": "address"
        }
      ],
      "name": "RoleRevoked",
      "type": "event"
    },
    {
      "inputs": [],
      "name": "EXIT",
      "outputs": [
        {
          "internalType": "bytes4",
          "name": "",
          "type": "bytes4"
        }
      ],
      "stateMutability": "view",
      "type": "function"
    },
    {
      "inputs": [],
      "name": "JOIN",
      "outputs": [
        {
          "internalType": "bytes4",
          "name": "",
          "type": "bytes4"
        }
      ],
      "stateMutability": "view",
      "type": "function"
    },
    {
      "inputs": [],
      "name": "LOCK",
      "outputs": [
        {
          "internalType": "bytes4",
          "name": "",
          "type": "bytes4"
        }
      ],
      "stateMutability": "view",
      "type": "function"
    },
    {
      "inputs": [],
      "name": "LOCK8605463013",
      "outputs": [
        {
          "internalType": "bytes4",
          "name": "",
          "type": "bytes4"
        }
      ],
      "stateMutability": "view",
      "type": "function"
    },
    {
      "inputs": [],
      "name": "ROOT",
      "outputs": [
        {
          "internalType": "bytes4",
          "name": "",
          "type": "bytes4"
        }
      ],
      "stateMutability": "view",
      "type": "function"
    },
    {
      "inputs": [],
      "name": "ROOT4146650865",
      "outputs": [
        {
          "internalType": "bytes4",
          "name": "",
          "type": "bytes4"
        }
      ],
      "stateMutability": "view",
      "type": "function"
    },
    {
      "inputs": [
        {
          "internalType": "bytes6",
          "name": "assetId",
          "type": "bytes6"
        },
        {
          "internalType": "address",
          "name": "assetAddress",
          "type": "address"
        },
        {
          "internalType": "address",
          "name": "joinAddress",
          "type": "address"
        },
        {
          "components": [
            {
              "internalType": "bytes6",
              "name": "ilkId",
              "type": "bytes6"
            },
            {
              "internalType": "uint32",
              "name": "duration",
              "type": "uint32"
            },
            {
              "internalType": "uint64",
              "name": "initialOffer",
              "type": "uint64"
            },
            {
              "internalType": "uint96",
              "name": "line",
              "type": "uint96"
            },
            {
              "internalType": "uint24",
              "name": "dust",
              "type": "uint24"
            },
            {
              "internalType": "uint8",
              "name": "dec",
              "type": "uint8"
            }
          ],
          "internalType": "struct fCashWand.AuctionLimit[]",
          "name": "auctionLimits",
          "type": "tuple[]"
        },
        {
          "components": [
            {
              "internalType": "bytes6",
              "name": "baseId",
              "type": "bytes6"
            },
            {
              "internalType": "bytes6",
              "name": "ilkId",
              "type": "bytes6"
            },
            {
              "internalType": "uint32",
              "name": "ratio",
              "type": "uint32"
            },
            {
              "internalType": "uint96",
              "name": "line",
              "type": "uint96"
            },
            {
              "internalType": "uint24",
              "name": "dust",
              "type": "uint24"
            },
            {
              "internalType": "uint8",
              "name": "dec",
              "type": "uint8"
            }
          ],
          "internalType": "struct fCashWand.DebtLimit[]",
          "name": "debtLimits",
          "type": "tuple[]"
        },
        {
          "components": [
            {
              "internalType": "bytes6",
              "name": "series",
              "type": "bytes6"
            },
            {
              "internalType": "bytes6[]",
              "name": "ilkIds",
              "type": "bytes6[]"
            }
          ],
          "internalType": "struct fCashWand.SeriesIlk[]",
          "name": "seriesIlks",
          "type": "tuple[]"
        }
      ],
      "name": "addfCashCollateral",
      "outputs": [],
      "stateMutability": "nonpayable",
      "type": "function"
    },
    {
      "inputs": [],
      "name": "cauldron",
      "outputs": [
        {
          "internalType": "contract ICauldronGov",
          "name": "",
          "type": "address"
        }
      ],
      "stateMutability": "view",
      "type": "function"
    },
    {
      "inputs": [],
      "name": "chainlinkMultiOracle",
      "outputs": [
        {
          "internalType": "contract IChainlinkMultiOracle",
          "name": "",
          "type": "address"
        }
      ],
      "stateMutability": "view",
      "type": "function"
    },
    {
      "inputs": [],
      "name": "cloak",
      "outputs": [
        {
          "internalType": "contract IEmergencyBrake",
          "name": "",
          "type": "address"
        }
      ],
      "stateMutability": "view",
      "type": "function"
    },
    {
      "inputs": [
        {
          "internalType": "bytes4",
          "name": "role",
          "type": "bytes4"
        }
      ],
      "name": "getRoleAdmin",
      "outputs": [
        {
          "internalType": "bytes4",
          "name": "",
          "type": "bytes4"
        }
      ],
      "stateMutability": "view",
      "type": "function"
    },
    {
      "inputs": [
        {
          "internalType": "bytes4",
          "name": "role",
          "type": "bytes4"
        },
        {
          "internalType": "address",
          "name": "account",
          "type": "address"
        }
      ],
      "name": "grantRole",
      "outputs": [],
      "stateMutability": "nonpayable",
      "type": "function"
    },
    {
      "inputs": [
        {
          "internalType": "bytes4[]",
          "name": "roles",
          "type": "bytes4[]"
        },
        {
          "internalType": "address",
          "name": "account",
          "type": "address"
        }
      ],
      "name": "grantRoles",
      "outputs": [],
      "stateMutability": "nonpayable",
      "type": "function"
    },
    {
      "inputs": [
        {
          "internalType": "bytes4",
          "name": "role",
          "type": "bytes4"
        },
        {
          "internalType": "address",
          "name": "account",
          "type": "address"
        }
      ],
      "name": "hasRole",
      "outputs": [
        {
          "internalType": "bool",
          "name": "",
          "type": "bool"
        }
      ],
      "stateMutability": "view",
      "type": "function"
    },
    {
      "inputs": [],
      "name": "ladle",
      "outputs": [
        {
          "internalType": "contract ILadleGov",
          "name": "",
          "type": "address"
        }
      ],
      "stateMutability": "view",
      "type": "function"
    },
    {
      "inputs": [
        {
          "internalType": "bytes4",
          "name": "role",
          "type": "bytes4"
        }
      ],
      "name": "lockRole",
      "outputs": [],
      "stateMutability": "nonpayable",
      "type": "function"
    },
    {
      "inputs": [
        {
          "internalType": "bytes4",
          "name": "role",
          "type": "bytes4"
        },
        {
          "internalType": "address",
          "name": "account",
          "type": "address"
        }
      ],
      "name": "renounceRole",
      "outputs": [],
      "stateMutability": "nonpayable",
      "type": "function"
    },
    {
      "inputs": [
        {
          "internalType": "bytes4",
          "name": "role",
          "type": "bytes4"
        },
        {
          "internalType": "address",
          "name": "account",
          "type": "address"
        }
      ],
      "name": "revokeRole",
      "outputs": [],
      "stateMutability": "nonpayable",
      "type": "function"
    },
    {
      "inputs": [
        {
          "internalType": "bytes4[]",
          "name": "roles",
          "type": "bytes4[]"
        },
        {
          "internalType": "address",
          "name": "account",
          "type": "address"
        }
      ],
      "name": "revokeRoles",
      "outputs": [],
      "stateMutability": "nonpayable",
      "type": "function"
    },
    {
      "inputs": [
        {
          "internalType": "bytes4",
          "name": "role",
          "type": "bytes4"
        },
        {
          "internalType": "bytes4",
          "name": "adminRole",
          "type": "bytes4"
        }
      ],
      "name": "setRoleAdmin",
      "outputs": [],
      "stateMutability": "nonpayable",
      "type": "function"
    },
    {
      "inputs": [],
      "name": "witch",
      "outputs": [
        {
          "internalType": "contract IWitchCustom",
          "name": "",
          "type": "address"
        }
      ],
      "stateMutability": "view",
      "type": "function"
    }
  ],
  "bytecode": {
    "object": "0x60806040523480156200001157600080fd5b5060405162001a2c38038062001a2c833981016040819052620000349162000207565b62000041600033620000b8565b620000556001600160e01b03198062000150565b600180546001600160a01b03199081166001600160a01b0397881617909155600280548216958716959095179094556005805485169386169390931790925560038054841691851691909117905560048054909216921691909117905562000287565b6001600160e01b031982166000908152602081815260408083206001600160a01b038516845290915290205460ff166200014c576001600160e01b031982166000818152602081815260408083206001600160a01b0386168085529252808320805460ff1916600117905551339391927fe6231789d19137da31d0550f4ba9ee379020a8cfb64cb79bf1790c996d2e616591a45b5050565b6001600160e01b0319811662000182836001600160e01b03191660009081526020819052604090206001015460e01b90565b6001600160e01b031916146200014c576001600160e01b0319828116600081815260208190526040808220600101805463ffffffff191660e087901c17905551928416927fd348e2220a50b4500ec353f6e802d2f14dd1b5d6786148fd1bbcc570bf92d4739190a35050565b6001600160a01b03811681146200020457600080fd5b50565b600080600080600060a086880312156200022057600080fd5b85516200022d81620001ee565b60208701519095506200024081620001ee565b60408701519094506200025381620001ee565b60608701519093506200026681620001ee565b60808701519092506200027981620001ee565b809150509295509295909350565b61179580620002976000396000f3fe608060405234801561001057600080fd5b50600436106101325760003560e01c806397ff6a04116100b8578063ceec5d961161007c578063ceec5d9614610270578063de02cde714610283578063eb0786b114610296578063effae353146102a9578063f6e84aca146102bc578063ffffffff1461023b57600080fd5b806397ff6a0414610215578063a308e85114610228578063a4f0d7d01461023b578063ad82110f1461024a578063ae93c1b51461025d57600080fd5b80635ba5e9f0116100ff5780635ba5e9f0146101a8578063687f0e4c146101bb57806376563cec146101ce5780637f968148146101dc57806394b8e38f146101ea57600080fd5b801561013757806310ab94321461015d57806344faded014610180578063559742d9146101955780635909c12f14610137575b600080fd5b61013f600081565b6040516001600160e01b031990911681526020015b60405180910390f35b61017061016b366004611015565b6102cf565b6040519015158152602001610154565b61019361018e366004611015565b6102e2565b005b6101936101a3366004611048565b610329565b61013f6101b6366004611048565b610368565b6101936101c9366004611015565b610379565b61013f6312e5ff7760e01b81565b61013f63ceae3abd60e01b81565b6002546101fd906001600160a01b031681565b6040516001600160a01b039091168152602001610154565b6001546101fd906001600160a01b031681565b6005546101fd906001600160a01b031681565b61013f6001600160e01b031981565b61019361025836600461111a565b6103d4565b61019361026b3660046111c9565b610456565b6003546101fd906001600160a01b031681565b610193610291366004611015565b610489565b6101936102a4366004611257565b6104bc565b6101936102b736600461111a565b6105dd565b6004546101fd906001600160a01b031681565b60006102db8383610652565b9392505050565b816102f56102ef82610687565b33610652565b61031a5760405162461bcd60e51b815260040161031190611352565b60405180910390fd5b61032483836106a9565b505050565b806103366102ef82610687565b6103525760405162461bcd60e51b815260040161031190611352565b610364826001600160e01b0319610718565b5050565b600061037382610687565b92915050565b6001600160a01b03811633146103ca5760405162461bcd60e51b81526020600482015260166024820152752932b737bab731b29037b7363c903337b91039b2b63360511b6044820152606401610311565b61036482826106a9565b60005b8251811015610324576104056102ef8483815181106103f8576103f8611376565b6020026020010151610687565b6104215760405162461bcd60e51b815260040161031190611352565b61044483828151811061043657610436611376565b6020026020010151836106a9565b8061044e8161138c565b9150506103d7565b816104636102ef82610687565b61047f5760405162461bcd60e51b815260040161031190611352565b6103248383610718565b816104966102ef82610687565b6104b25760405162461bcd60e51b815260040161031190611352565b6103248383610797565b6104d26000356001600160e01b03191633610652565b61050e5760405162461bcd60e51b815260206004820152600d60248201526c1058d8d95cdcc819195b9a5959609a1b6044820152606401610311565b610519898989610808565b6105c8878787808060200260200160405190810160405280939291908181526020016000905b8282101561056b5761055c60c08302860136819003810190611402565b8152602001906001019061053f565b50505050508686808060200260200160405190810160405280939291908181526020016000905b828210156105be576105af60c08302860136819003810190611492565b81526020019060010190610592565b5050505050610ae9565b6105d28282610d8a565b505050505050505050565b60005b8251811015610324576106016102ef8483815181106103f8576103f8611376565b61061d5760405162461bcd60e51b815260040161031190611352565b61064083828151811061063257610632611376565b602002602001015183610797565b8061064a8161138c565b9150506105e0565b6001600160e01b031982166000908152602081815260408083206001600160a01b038516845290915290205460ff1692915050565b6001600160e01b03191660009081526020819052604090206001015460e01b90565b6106b38282610652565b15610364576001600160e01b031982166000818152602081815260408083206001600160a01b0386168085529252808320805460ff1916905551339391927f4ddc7b757e7bdd7254a9cd39452d307a52761bc824625c6a33104a075d8099e691a45050565b6001600160e01b0319811661072c83610687565b6001600160e01b03191614610364576001600160e01b0319828116600081815260208190526040808220600101805463ffffffff191660e087901c17905551928416927fd348e2220a50b4500ec353f6e802d2f14dd1b5d6786148fd1bbcc570bf92d4739190a35050565b6107a18282610652565b610364576001600160e01b031982166000818152602081815260408083206001600160a01b0386168085529252808320805460ff1916600117905551339391927fe6231789d19137da31d0550f4ba9ee379020a8cfb64cb79bf1790c996d2e616591a45050565b6001546040516339997e7960e21b81526001600160a01b039091169063e665f9e49061083a90869086906004016114d4565b600060405180830381600087803b15801561085457600080fd5b505af1158015610868573d6000803e3d6000fd5b5060009250600291506108789050565b6040519080825280602002602001820160405280156108a1578160200160208202803683370190505b50905063ceae3abd60e01b816000815181106108bf576108bf611376565b6001600160e01b03199092166020928302919091019091015280516312e5ff7760e01b90829060019081106108f6576108f6611376565b6001600160e01b03199092166020928302919091019091015260025460405163effae35360e01b81526001600160a01b038085169263effae3539261094192869216906004016114f7565b600060405180830381600087803b15801561095b57600080fd5b505af115801561096f573d6000803e3d6000fd5b50506002546040516349c29d2b60e01b81526001600160a01b0390911692506349c29d2b91506109a590879086906004016114d4565b600060405180830381600087803b1580156109bf57600080fd5b505af11580156109d3573d6000803e3d6000fd5b5060009250600191506109e39050565b604051908082528060200260200182016040528015610a2957816020015b604080518082019091526000815260606020820152815260200190600190039081610a015790505b5090506040518060400160405280846001600160a01b031681526020018381525081600081518110610a5d57610a5d611376565b602090810291909101015260035460025460405163de8a066760e01b81526001600160a01b039283169263de8a066792610a9e929116908590600401611555565b6020604051808303816000875af1158015610abd573d6000803e3d6000fd5b505050506040513d601f19601f82011682018060405250810190610ae19190611615565b505050505050565b60005b8251811015610b4c576000838281518110610b0957610b09611376565b60200260200101519050610b39816000015182602001518360400151846060015185608001518660a00151610e43565b5080610b448161138c565b915050610aec565b5060055460405163de02cde760e01b81526312e5ff7760e01b60048201526001600160a01b039182166024820152849182169063de02cde790604401600060405180830381600087803b158015610ba257600080fd5b505af1158015610bb6573d6000803e3d6000fd5b506000925060019150610bc69050565b604051908082528060200260200182016040528015610bef578160200160208202803683370190505b5090506312e5ff7760e01b81600081518110610c0d57610c0d611376565b6001600160e01b03199290921660209283029190910190910152604080516001808252818301909252600091816020015b604080518082019091526000815260606020820152815260200190600190039081610c3e5790505090506040518060400160405280876001600160a01b031681526020018381525081600081518110610c9957610c99611376565b602090810291909101015260035460055460405163de8a066760e01b81526001600160a01b039283169263de8a066792610cda929116908590600401611555565b6020604051808303816000875af1158015610cf9573d6000803e3d6000fd5b505050506040513d601f19601f82011682018060405250810190610d1d9190611615565b5060005b8451811015610d81576000858281518110610d3e57610d3e611376565b60200260200101519050610d6e816000015182602001518360400151846060015185608001518660a00151610ef2565b5080610d798161138c565b915050610d21565b50505050505050565b60005b81811015610324576000838383818110610da957610da9611376565b9050602002810190610dbb919061162e565b610dc49061164e565b600154815160208301516040516353eecb7760e01b81529394506001600160a01b03909216926353eecb7792610dfd9291600401611702565b600060405180830381600087803b158015610e1757600080fd5b505af1158015610e2b573d6000803e3d6000fd5b50505050508080610e3b9061138c565b915050610d8d565b600554604051630783c72960e11b81526001600160d01b03198816600482015263ffffffff8716602482015267ffffffffffffffff861660448201526001600160601b038516606482015262ffffff8416608482015260ff831660a48201526001600160a01b0390911690630f078e529060c4015b600060405180830381600087803b158015610ed257600080fd5b505af1158015610ee6573d6000803e3d6000fd5b50505050505050505050565b6001546004805460405163477b5efd60e11b81526001600160d01b0319808b169382019390935291881660248301526001600160a01b03908116604483015263ffffffff8716606483015290911690638ef6bdfa90608401600060405180830381600087803b158015610f6457600080fd5b505af1158015610f78573d6000803e3d6000fd5b505060015460405163d3fc152b60e01b81526001600160d01b0319808b166004830152891660248201526001600160601b038716604482015262ffffff8616606482015260ff851660848201526001600160a01b03909116925063d3fc152b915060a401610eb8565b80356001600160e01b031981168114610ff957600080fd5b919050565b80356001600160a01b0381168114610ff957600080fd5b6000806040838503121561102857600080fd5b61103183610fe1565b915061103f60208401610ffe565b90509250929050565b60006020828403121561105a57600080fd5b6102db82610fe1565b634e487b7160e01b600052604160045260246000fd5b60405160c0810167ffffffffffffffff8111828210171561109c5761109c611063565b60405290565b6040805190810167ffffffffffffffff8111828210171561109c5761109c611063565b604051601f8201601f1916810167ffffffffffffffff811182821017156110ee576110ee611063565b604052919050565b600067ffffffffffffffff82111561111057611110611063565b5060051b60200190565b6000806040838503121561112d57600080fd5b823567ffffffffffffffff81111561114457600080fd5b8301601f8101851361115557600080fd5b8035602061116a611165836110f6565b6110c5565b82815260059290921b8301810191818101908884111561118957600080fd5b938201935b838510156111ae5761119f85610fe1565b8252938201939082019061118e565b95506111bd9050868201610ffe565b93505050509250929050565b600080604083850312156111dc57600080fd5b6111e583610fe1565b915061103f60208401610fe1565b80356001600160d01b031981168114610ff957600080fd5b60008083601f84011261121d57600080fd5b50813567ffffffffffffffff81111561123557600080fd5b60208301915083602060c08302850101111561125057600080fd5b9250929050565b600080600080600080600080600060c08a8c03121561127557600080fd5b61127e8a6111f3565b985061128c60208b01610ffe565b975061129a60408b01610ffe565b965060608a013567ffffffffffffffff808211156112b757600080fd5b6112c38d838e0161120b565b909850965060808c01359150808211156112dc57600080fd5b6112e88d838e0161120b565b909650945060a08c013591508082111561130157600080fd5b818c0191508c601f83011261131557600080fd5b81358181111561132457600080fd5b8d60208260051b850101111561133957600080fd5b6020830194508093505050509295985092959850929598565b6020808252600a908201526927b7363c9030b236b4b760b11b604082015260600190565b634e487b7160e01b600052603260045260246000fd5b6000600182016113ac57634e487b7160e01b600052601160045260246000fd5b5060010190565b803563ffffffff81168114610ff957600080fd5b80356001600160601b0381168114610ff957600080fd5b803562ffffff81168114610ff957600080fd5b803560ff81168114610ff957600080fd5b600060c0828403121561141457600080fd5b61141c611079565b611425836111f3565b8152611433602084016113b3565b6020820152604083013567ffffffffffffffff8116811461145357600080fd5b6040820152611464606084016113c7565b6060820152611475608084016113de565b608082015261148660a084016113f1565b60a08201529392505050565b600060c082840312156114a457600080fd5b6114ac611079565b6114b5836111f3565b81526114c3602084016111f3565b6020820152611453604084016113b3565b6001600160d01b03199290921682526001600160a01b0316602082015260400190565b604080825283519082018190526000906020906060840190828701845b8281101561153a5781516001600160e01b03191684529284019290840190600101611514565b5050506001600160a01b039490941692019190915250919050565b6001600160a01b038381168252604060208084018290528451848301819052600093606092909183870190600581901b8801850189840188805b84811015611603578b8403605f1901865282518051891685528701518785018b905280518b86018190529088019083908b8701905b808310156115ee5783516001600160e01b0319168252928a019260019290920191908a01906115c4565b5097890197955050509186019160010161158f565b50919c9b505050505050505050505050565b60006020828403121561162757600080fd5b5051919050565b60008235603e1983360301811261164457600080fd5b9190910192915050565b60006040823603121561166057600080fd5b6116686110a2565b611671836111f3565b815260208084013567ffffffffffffffff81111561168e57600080fd5b840136601f82011261169f57600080fd5b80356116ad611165826110f6565b81815260059190911b820183019083810190368311156116cc57600080fd5b928401925b828410156116f1576116e2846111f3565b825292840192908401906116d1565b938501939093525091949350505050565b60006040820165ffffffffffff60d01b80861684526020604081860152828651808552606087019150828801945060005b81811015611751578551851683529483019491830191600101611733565b50909897505050505050505056fea26469706673582212204eca3fc49fdae345e71aa9d0f5f3b0783b8cdbfe050831fb371a583140c27f4e64736f6c634300080e0033",
    "linkReferences": {}
  },
  "methodIdentifiers": {
    "EXIT()": "76563cec",
    "JOIN()": "7f968148",
    "LOCK()": "a4f0d7d0",
    "LOCK8605463013()": "ffffffff",
    "ROOT()": "5909c12f",
    "ROOT4146650865()": "00000000",
    "addfCashCollateral(bytes6,address,address,(bytes6,uint32,uint64,uint96,uint24,uint8)[],(bytes6,bytes6,uint32,uint96,uint24,uint8)[],(bytes6,bytes6[])[])": "eb0786b1",
    "cauldron()": "97ff6a04",
    "chainlinkMultiOracle()": "f6e84aca",
    "cloak()": "ceec5d96",
    "getRoleAdmin(bytes4)": "5ba5e9f0",
    "grantRole(bytes4,address)": "de02cde7",
    "grantRoles(bytes4[],address)": "effae353",
    "hasRole(bytes4,address)": "10ab9432",
    "ladle()": "94b8e38f",
    "lockRole(bytes4)": "559742d9",
    "renounceRole(bytes4,address)": "687f0e4c",
    "revokeRole(bytes4,address)": "44faded0",
    "revokeRoles(bytes4[],address)": "ad82110f",
    "setRoleAdmin(bytes4,bytes4)": "ae93c1b5",
    "witch()": "a308e851"
  },
  "id": 10
}